{
  "transactions": [
    {
      "hash": "0x29e97747d12c228a8d21e4e5facd6d3c2aa8321e52433316368925bf8949e3a0",
      "transactionType": "CALL",
      "contractName": null,
      "contractAddress": "0x28b62aa50412c8206633d180d5929d0854a0a213",
      "function": "approve(address,uint256)",
      "arguments": [
        "0x3eff766C76a1be2Ce1aCF2B69c78bCae257D5188",
        "10000000"
      ],
      "transaction": {
        "from": "0x480d52f0ab19d60430baa6ace88512b6aec4cbe3",
        "to": "0x28b62aa50412c8206633d180d5929d0854a0a213",
        "gas": "0xccc3",
        "value": "0x0",
        "input": "0x095ea7b30000000000000000000000003eff766c76a1be2ce1acf2b69c78bcae257d51880000000000000000000000000000000000000000000000000000000000989680",
        "nonce": "0xa",
        "chainId": "0x2105"
      },
      "additionalContracts": [],
      "isFixedGasLimit": false
    },
    {
      "hash": "0x4c211465f7a635085724c0c247b07190607143d4bbc12912aa4120711fb476a2",
      "transactionType": "CALL",
      "contractName": null,
      "contractAddress": "0x3eff766c76a1be2ce1acf2b69c78bcae257d5188",
      "function": "bridgeToken((address,bytes32,bytes32,uint64),(bytes32,bytes[],bytes)[])",
      "arguments": [
        "(0x28b62AA50412C8206633d180d5929d0854A0A213, 0x62c1d8e55e11008944bad3e6959c512ad6dc728170886c67b78d8e0ac50224af, 0x4579181534f313044f912bce118b207039f78f0add62b7ee1a1cef86e6bb455f, 10000000)",
        "[]"
      ],
      "transaction": {
        "from": "0x480d52f0ab19d60430baa6ace88512b6aec4cbe3",
        "to": "0x3eff766c76a1be2ce1acf2b69c78bcae257d5188",
        "gas": "0x44a28",
        "value": "0x0",
        "input": "0x6736eb1700000000000000000000000028b62aa50412c8206633d180d5929d0854a0a21362c1d8e55e11008944bad3e6959c512ad6dc728170886c67b78d8e0ac50224af4579181534f313044f912bce118b207039f78f0add62b7ee1a1cef86e6bb455f000000000000000000000000000000000000000000000000000000000098968000000000000000000000000000000000000000000000000000000000000000a00000000000000000000000000000000000000000000000000000000000000000",
        "nonce": "0xb",
        "chainId": "0x2105"
      },
      "additionalContracts": [],
      "isFixedGasLimit": false
    }
  ],
  "receipts": [
    {
      "status": "0x1",
      "cumulativeGasUsed": "0x37b4473",
      "logs": [
        {
          "address": "0x28b62aa50412c8206633d180d5929d0854a0a213",
          "topics": [
            "0x8c5be1e5ebec7d5bd14f71427d1e84f3dd0314c0f7b2291e5b200ac8c7c3b925",
            "0x000000000000000000000000480d52f0ab19d60430baa6ace88512b6aec4cbe3",
            "0x0000000000000000000000003eff766c76a1be2ce1acf2b69c78bcae257d5188"
          ],
          "data": "0x0000000000000000000000000000000000000000000000000000000000989680",
          "blockHash": "0xd56973491cdca33fb4a55a64aadf40936e361012128f761fe41a3a32ca7f653e",
          "blockNumber": "0x26f2e49",
          "blockTimestamp": "0x6968b975",
          "transactionHash": "0x29e97747d12c228a8d21e4e5facd6d3c2aa8321e52433316368925bf8949e3a0",
          "transactionIndex": "0xe4",
          "logIndex": "0x4d8",
          "removed": false
        }
      ],
      "logsBloom": "0x00000000000000000000000000000000000000000000000000000000000000000000000000000000000000000000000000000000000010000000000000200000002000000000000000000000000000000000000000000000000000000000000000000000000000000000000000000000000000000000000000000000000000000000020000000000000000000000000000000001000000000020000000000000020000000000000000000000000000000000000000000000000000000000000000000000000000000000000000000040000000002000000000000000400000000010000000000000000000000000000000000001000000000000000000000000",
      "type": "0x2",
      "transactionHash": "0x29e97747d12c228a8d21e4e5facd6d3c2aa8321e52433316368925bf8949e3a0",
      "transactionIndex": "0xe4",
      "blockHash": "0xd56973491cdca33fb4a55a64aadf40936e361012128f761fe41a3a32ca7f653e",
      "blockNumber": "0x26f2e49",
      "gasUsed": "0x8c03",
      "effectiveGasPrice": "0x597ea5",
      "blobGasUsed": "0x7ef4",
      "from": "0x480d52f0ab19d60430baa6ace88512b6aec4cbe3",
      "to": "0x28b62aa50412c8206633d180d5929d0854a0a213",
      "contractAddress": null,
      "daFootprintGasScalar": "0x145",
      "l1BaseFeeScalar": "0x8dd",
      "l1BlobBaseFee": "0xb957db",
      "l1BlobBaseFeeScalar": "0x101c12",
      "l1Fee": "0x788bc412",
      "l1GasPrice": "0xc266235",
      "l1GasUsed": "0x640"
    },
    {
      "status": "0x1",
      "cumulativeGasUsed": "0x37e5f80",
      "logs": [
        {
          "address": "0x28b62aa50412c8206633d180d5929d0854a0a213",
          "topics": [
            "0xddf252ad1be2c89b69c2b068fc378daa952ba7f163c4a11628f55a4df523b3ef",
            "0x000000000000000000000000480d52f0ab19d60430baa6ace88512b6aec4cbe3",
            "0x0000000000000000000000000000000000000000000000000000000000000000"
          ],
          "data": "0x0000000000000000000000000000000000000000000000000000000000989680",
          "blockHash": "0xd56973491cdca33fb4a55a64aadf40936e361012128f761fe41a3a32ca7f653e",
          "blockNumber": "0x26f2e49",
          "blockTimestamp": "0x6968b975",
          "transactionHash": "0x4c211465f7a635085724c0c247b07190607143d4bbc12912aa4120711fb476a2",
          "transactionIndex": "0xe5",
          "logIndex": "0x4d9",
          "removed": false
        },
        {
          "address": "0x28b62aa50412c8206633d180d5929d0854a0a213",
          "topics": [
            "0xcc16f5dbb4873280815c1ee09dbd06736cffcc184412cf7a71a0fdb75d397ca5",
            "0x000000000000000000000000480d52f0ab19d60430baa6ace88512b6aec4cbe3"
          ],
          "data": "0x0000000000000000000000000000000000000000000000000000000000989680",
          "blockHash": "0xd56973491cdca33fb4a55a64aadf40936e361012128f761fe41a3a32ca7f653e",
          "blockNumber": "0x26f2e49",
          "blockTimestamp": "0x6968b975",
          "transactionHash": "0x4c211465f7a635085724c0c247b07190607143d4bbc12912aa4120711fb476a2",
          "transactionIndex": "0xe5",
          "logIndex": "0x4da",
          "removed": false
        },
        {
          "address": "0x3eff766c76a1be2ce1acf2b69c78bcae257d5188",
          "topics": [
            "0xf1109ae3af61805fa998753209b2a90166bfc4b38ad8a6b5a268591ce18f99c0"
          ],
          "data": "0x00000000000000000000000028b62aa50412c8206633d180d5929d0854a0a21362c1d8e55e11008944bad3e6959c512ad6dc728170886c67b78d8e0ac50224af4579181534f313044f912bce118b207039f78f0add62b7ee1a1cef86e6bb455f0000000000000000000000000000000000000000000000000000000000989680",
          "blockHash": "0xd56973491cdca33fb4a55a64aadf40936e361012128f761fe41a3a32ca7f653e",
          "blockNumber": "0x26f2e49",
          "blockTimestamp": "0x6968b975",
          "transactionHash": "0x4c211465f7a635085724c0c247b07190607143d4bbc12912aa4120711fb476a2",
          "transactionIndex": "0xe5",
          "logIndex": "0x4db",
          "removed": false
        },
        {
          "address": "0x3eff766c76a1be2ce1acf2b69c78bcae257d5188",
          "topics": [
            "0x877352bc1cb00627bdb5bf16a3664cfe784f66bb3c1bfef68bf5b4ae34e66599",
            "0x68417a774183f5fb437fa4e211570b6444ed1d83f6a517cd3a4a55cfe059d54a",
            "0xf9607af6ce0e0cc4c048c78dde5e15fb1e2dad3174fe905c9b76fe807fcb6fad"
          ],
          "data": "0x00000000000000000000000000000000000000000000000000000000000000200000000000000000000000000000000000000000000000000000000000000117000000000000000000000000480d52f0ab19d60430baa6ace88512b6aec4cbe300000000000000000000000000000000000000000000000000000000000000600000000000000000000000000000000000000000000000000000000000000062010128b62aa50412c8206633d180d5929d0854a0a21362c1d8e55e11008944bad3e6959c512ad6dc728170886c67b78d8e0ac50224af4579181534f313044f912bce118b207039f78f0add62b7ee1a1cef86e6bb455f809698000000000000000000000000000000000000000000000000000000000000000000000000000000",
          "blockHash": "0xd56973491cdca33fb4a55a64aadf40936e361012128f761fe41a3a32ca7f653e",
          "blockNumber": "0x26f2e49",
          "blockTimestamp": "0x6968b975",
          "transactionHash": "0x4c211465f7a635085724c0c247b07190607143d4bbc12912aa4120711fb476a2",
          "transactionIndex": "0xe5",
          "logIndex": "0x4dc",
          "removed": false
        }
      ],
      "logsBloom": "0x00000000000000000000000000000000000000000202001000000000000000000000000000000000000000000000000000000000000010000000000000000000002000000000000000000008000000000000000000020000000000100000000000000080020000000000000000000800080000000020000000000010000000000000040000040000000000000000004000000001000000000020000000200000000008000000000000000000000000000000000000000000000000000000000000000002000000000000000000000000000000082000000008000000000020000000000000000000002000000000000000008001008000000000000000000000",
      "type": "0x2",
      "transactionHash": "0x4c211465f7a635085724c0c247b07190607143d4bbc12912aa4120711fb476a2",
      "transactionIndex": "0xe5",
      "blockHash": "0xd56973491cdca33fb4a55a64aadf40936e361012128f761fe41a3a32ca7f653e",
      "blockNumber": "0x26f2e49",
      "gasUsed": "0x31b0d",
      "effectiveGasPrice": "0x597ea5",
      "blobGasUsed": "0xc0f8",
      "from": "0x480d52f0ab19d60430baa6ace88512b6aec4cbe3",
      "to": "0x3eff766c76a1be2ce1acf2b69c78bcae257d5188",
      "contractAddress": null,
      "daFootprintGasScalar": "0x145",
      "l1BaseFeeScalar": "0x8dd",
      "l1BlobBaseFee": "0xb957db",
      "l1BlobBaseFeeScalar": "0x101c12",
      "l1Fee": "0x788bc412",
      "l1GasPrice": "0xc266235",
      "l1GasUsed": "0x985"
    }
  ],
  "libraries": [],
  "pending": [],
  "returns": {},
  "timestamp": 1768470900387,
  "chain": 8453,
  "commit": "bd9cdcc"
}