{
  "transactions": [
    {
      "hash": "0xa120f748b31e6a0f0e5fe6faf51364b8481efdb2da3d7cecac4f855f72435f4b",
      "transactionType": "CALL",
      "contractName": null,
      "contractAddress": "0x0bec82590219f7cd5ae97d118760ceb1e0bec849",
      "function": "bridgeToken((address,bytes32,bytes32,uint64),(bytes32,bytes[],bytes)[])",
      "arguments": [
        "(0xEeeeeEeeeEeEeeEeEeEeeEEEeeeeEeeeeeeeEEeE, 0xa1aaa5eca2f25d83a40bae50f12b6704e45606cd6c5920c7113ed19bbe3d4221, 0x5c201187570d0d5cfdf2b447414c63d27fdebc2de3da8a7c9ea2dfeb8e3bfaba, 1)",
        "[]"
      ],
      "transaction": {
        "from": "0x25f7fd8f50d522b266764cd3b230edaa8cbb9f75",
        "to": "0x0bec82590219f7cd5ae97d118760ceb1e0bec849",
        "gas": "0x34dea",
        "value": "0x3b9aca00",
        "input": "0x6736eb17000000000000000000000000eeeeeeeeeeeeeeeeeeeeeeeeeeeeeeeeeeeeeeeea1aaa5eca2f25d83a40bae50f12b6704e45606cd6c5920c7113ed19bbe3d42215c201187570d0d5cfdf2b447414c63d27fdebc2de3da8a7c9ea2dfeb8e3bfaba000000000000000000000000000000000000000000000000000000000000000100000000000000000000000000000000000000000000000000000000000000a00000000000000000000000000000000000000000000000000000000000000000",
        "nonce": "0x226",
        "chainId": "0x14a34"
      },
      "additionalContracts": [],
      "isFixedGasLimit": false
    }
  ],
  "receipts": [
    {
      "status": "0x1",
      "cumulativeGasUsed": "0x36a865",
      "logs": [
        {
          "address": "0x0bec82590219f7cd5ae97d118760ceb1e0bec849",
          "topics": [
            "0xf1109ae3af61805fa998753209b2a90166bfc4b38ad8a6b5a268591ce18f99c0"
          ],
          "data": "0x000000000000000000000000eeeeeeeeeeeeeeeeeeeeeeeeeeeeeeeeeeeeeeeea1aaa5eca2f25d83a40bae50f12b6704e45606cd6c5920c7113ed19bbe3d42215c201187570d0d5cfdf2b447414c63d27fdebc2de3da8a7c9ea2dfeb8e3bfaba000000000000000000000000000000000000000000000000000000003b9aca00",
          "blockHash": "0x2cecdddf13889f6962a3e89953e78158a0fdef8deaead5ce38e1127f6d37defd",
          "blockNumber": "0x1ca233d",
          "transactionHash": "0xa120f748b31e6a0f0e5fe6faf51364b8481efdb2da3d7cecac4f855f72435f4b",
          "transactionIndex": "0xf",
          "logIndex": "0x61",
          "removed": false
        },
        {
          "address": "0x0bec82590219f7cd5ae97d118760ceb1e0bec849",
          "topics": [
            "0xbaa7ef9db66a2e95a218100288cf439de5fbe1e4ed665cd1a2f01278242c9fc4",
            "0x75f83c1b8c6b5aae1d90c4a21f17b5c6420d32c4d700727f3789c16970eba869",
            "0x75f83c1b8c6b5aae1d90c4a21f17b5c6420d32c4d700727f3789c16970eba869"
          ],
          "data": "0x0000000000000000000000000000000000000000000000000000000000000020000000000000000000000000000000000000000000000000000000000000000000000000000000000000000025f7fd8f50d522b266764cd3b230edaa8cbb9f750000000000000000000000000000000000000000000000000000000000000060000000000000000000000000000000000000000000000000000000000000004e0102a1aaa5eca2f25d83a40bae50f12b6704e45606cd6c5920c7113ed19bbe3d42215c201187570d0d5cfdf2b447414c63d27fdebc2de3da8a7c9ea2dfeb8e3bfaba010000000000000000000000000000000000000000000000000000000000",
          "blockHash": "0x2cecdddf13889f6962a3e89953e78158a0fdef8deaead5ce38e1127f6d37defd",
          "blockNumber": "0x1ca233d",
          "transactionHash": "0xa120f748b31e6a0f0e5fe6faf51364b8481efdb2da3d7cecac4f855f72435f4b",
          "transactionIndex": "0xf",
          "logIndex": "0x62",
          "removed": false
        }
      ],
      "logsBloom": "0x00000000000000000000000000000000000000000000000000000000000000000200000000000000000000000000000000000000000000000002000000000000000000000020000000000000000000000000000000020000000000000000000000000000000000000000800000000000000000000000000000000000000000000000000000000000000008000000004000000000000000000000000000000000000000000000000000000000000000000000000000000000000000000000000000000000000010000000000000000000000000000000000200000000000000000000000000000000002000000000000000000010000000000000000000000200",
      "type": "0x2",
      "transactionHash": "0xa120f748b31e6a0f0e5fe6faf51364b8481efdb2da3d7cecac4f855f72435f4b",
      "transactionIndex": "0xf",
      "blockHash": "0x2cecdddf13889f6962a3e89953e78158a0fdef8deaead5ce38e1127f6d37defd",
      "blockNumber": "0x1ca233d",
      "gasUsed": "0x2646e",
      "effectiveGasPrice": "0xecd4a",
      "from": "0x25f7fd8f50d522b266764cd3b230edaa8cbb9f75",
      "to": "0x0bec82590219f7cd5ae97d118760ceb1e0bec849",
      "contractAddress": null,
      "l1BaseFeeScalar": "0x44d",
      "l1BlobBaseFee": "0x1",
      "l1BlobBaseFeeScalar": "0xa118b",
      "l1Fee": "0x9794801",
      "l1GasPrice": "0x3b164ec",
      "l1GasUsed": "0x91a"
    }
  ],
  "libraries": [],
  "pending": [],
  "returns": {},
  "timestamp": 1755817307,
  "chain": 84532,
  "commit": "216b6c4"
}