{
  "transactions": [
    {
      "hash": "0x7fac7f156e388ae06fb597a3f801f56abd07a49f31c59d770efc92955575243f",
      "transactionType": "CALL",
      "contractName": null,
      "contractAddress": "0xc56ed1e611eb4eea0e35906e21ea65903bdb01f2",
      "function": "bridgeToken((address,bytes32,bytes32,uint64),(bytes32,bytes[],bytes)[])",
      "arguments": [
        "(0xEeeeeEeeeEeEeeEeEeEeeEEEeeeeEeeeeeeeEEeE, 0x56bd8b2fb5a694b655eb242b278d7e07f3ac762b407d3a6bfed16747bd055220, 0x70264a8ac50aac155b781333caab29de44d1df3891a36782eac30852766006c3, 1)",
        "[]"
      ],
      "transaction": {
        "from": "0x25f7fd8f50d522b266764cd3b230edaa8cbb9f75",
        "to": "0xc56ed1e611eb4eea0e35906e21ea65903bdb01f2",
        "gas": "0x34dea",
        "value": "0x3b9aca00",
        "input": "0x6736eb17000000000000000000000000eeeeeeeeeeeeeeeeeeeeeeeeeeeeeeeeeeeeeeee56bd8b2fb5a694b655eb242b278d7e07f3ac762b407d3a6bfed16747bd05522070264a8ac50aac155b781333caab29de44d1df3891a36782eac30852766006c3000000000000000000000000000000000000000000000000000000000000000100000000000000000000000000000000000000000000000000000000000000a00000000000000000000000000000000000000000000000000000000000000000",
        "nonce": "0x214",
        "chainId": "0x14a34"
      },
      "additionalContracts": [],
      "isFixedGasLimit": false
    }
  ],
  "receipts": [
    {
      "status": "0x1",
      "cumulativeGasUsed": "0x5e1916",
      "logs": [
        {
          "address": "0xc56ed1e611eb4eea0e35906e21ea65903bdb01f2",
          "topics": [
            "0xf1109ae3af61805fa998753209b2a90166bfc4b38ad8a6b5a268591ce18f99c0"
          ],
          "data": "0x000000000000000000000000eeeeeeeeeeeeeeeeeeeeeeeeeeeeeeeeeeeeeeee56bd8b2fb5a694b655eb242b278d7e07f3ac762b407d3a6bfed16747bd05522070264a8ac50aac155b781333caab29de44d1df3891a36782eac30852766006c3000000000000000000000000000000000000000000000000000000003b9aca00",
          "blockHash": "0xa6e1ed60661b25d31ee568c7ebd5b9c87c41bde6a0fc51ede45a181921c23232",
          "blockNumber": "0x1ca1601",
          "transactionHash": "0x7fac7f156e388ae06fb597a3f801f56abd07a49f31c59d770efc92955575243f",
          "transactionIndex": "0x1a",
          "logIndex": "0xd9",
          "removed": false
        },
        {
          "address": "0xc56ed1e611eb4eea0e35906e21ea65903bdb01f2",
          "topics": [
            "0xbaa7ef9db66a2e95a218100288cf439de5fbe1e4ed665cd1a2f01278242c9fc4",
            "0x102b1229f55cc392b04d89a9725dd7015a88e3e41d439f2f7368b2458aca5ed6",
            "0x102b1229f55cc392b04d89a9725dd7015a88e3e41d439f2f7368b2458aca5ed6"
          ],
          "data": "0x0000000000000000000000000000000000000000000000000000000000000020000000000000000000000000000000000000000000000000000000000000000000000000000000000000000025f7fd8f50d522b266764cd3b230edaa8cbb9f750000000000000000000000000000000000000000000000000000000000000060000000000000000000000000000000000000000000000000000000000000004e010256bd8b2fb5a694b655eb242b278d7e07f3ac762b407d3a6bfed16747bd05522070264a8ac50aac155b781333caab29de44d1df3891a36782eac30852766006c3010000000000000000000000000000000000000000000000000000000000",
          "blockHash": "0xa6e1ed60661b25d31ee568c7ebd5b9c87c41bde6a0fc51ede45a181921c23232",
          "blockNumber": "0x1ca1601",
          "transactionHash": "0x7fac7f156e388ae06fb597a3f801f56abd07a49f31c59d770efc92955575243f",
          "transactionIndex": "0x1a",
          "logIndex": "0xda",
          "removed": false
        }
      ],
      "logsBloom": "0x00000000000000000000000000000000080000000000000800000000000000000000000000000000000000000000000000000000000000000000000000000000000000000020000000000000000000000000000000020000000000000008000000000000000000000000000000000010000000000000000080000000000000000000000000000000000000000000004000000000000000000000000000000000000000000000000000000000000000000000000000000000000000000000000000000000000000000000000000000000000000000000000200000000000000000000000000000000002000000000000000000010000000000000000000100000",
      "type": "0x2",
      "transactionHash": "0x7fac7f156e388ae06fb597a3f801f56abd07a49f31c59d770efc92955575243f",
      "transactionIndex": "0x1a",
      "blockHash": "0xa6e1ed60661b25d31ee568c7ebd5b9c87c41bde6a0fc51ede45a181921c23232",
      "blockNumber": "0x1ca1601",
      "gasUsed": "0x2646e",
      "effectiveGasPrice": "0xecd4c",
      "from": "0x25f7fd8f50d522b266764cd3b230edaa8cbb9f75",
      "to": "0xc56ed1e611eb4eea0e35906e21ea65903bdb01f2",
      "contractAddress": null,
      "l1BaseFeeScalar": "0x44d",
      "l1BlobBaseFee": "0x6",
      "l1BlobBaseFeeScalar": "0xa118b",
      "l1Fee": "0x64610e2",
      "l1GasPrice": "0x2720def",
      "l1GasUsed": "0x91a"
    }
  ],
  "libraries": [],
  "pending": [],
  "returns": {},
  "timestamp": 1755810531,
  "chain": 84532,
  "commit": "216b6c4"
}