{
  "transactions": [
    {
      "hash": "0xa785ee231410f203bc62913b7b25db8e4081c6f4cdef55f9edb1ec2a2c04cd17",
      "transactionType": "CALL",
      "contractName": null,
      "contractAddress": "0xc56ed1e611eb4eea0e35906e21ea65903bdb01f2",
      "function": "bridgeToken((address,bytes32,bytes32,uint64),(bytes32,bytes[],bytes)[])",
      "arguments": [
        "(0xEeeeeEeeeEeEeeEeEeEeeEEEeeeeEeeeeeeeEEeE, 0x56bd8b2fb5a694b655eb242b278d7e07f3ac762b407d3a6bfed16747bd055220, 0xa5d0cbb4141078d2bb882070ac7f9f76e0be551df7effd31b07a75c34fec0e0b, 1)",
        "[]"
      ],
      "transaction": {
        "from": "0x25f7fd8f50d522b266764cd3b230edaa8cbb9f75",
        "to": "0xc56ed1e611eb4eea0e35906e21ea65903bdb01f2",
        "gas": "0x26a19",
        "value": "0x3b9aca00",
        "input": "0x6736eb17000000000000000000000000eeeeeeeeeeeeeeeeeeeeeeeeeeeeeeeeeeeeeeee56bd8b2fb5a694b655eb242b278d7e07f3ac762b407d3a6bfed16747bd055220a5d0cbb4141078d2bb882070ac7f9f76e0be551df7effd31b07a75c34fec0e0b000000000000000000000000000000000000000000000000000000000000000100000000000000000000000000000000000000000000000000000000000000a00000000000000000000000000000000000000000000000000000000000000000",
        "nonce": "0x215",
        "chainId": "0x14a34"
      },
      "additionalContracts": [],
      "isFixedGasLimit": false
    }
  ],
  "receipts": [
    {
      "status": "0x1",
      "cumulativeGasUsed": "0x3bd346",
      "logs": [
        {
          "address": "0xc56ed1e611eb4eea0e35906e21ea65903bdb01f2",
          "topics": [
            "0xf1109ae3af61805fa998753209b2a90166bfc4b38ad8a6b5a268591ce18f99c0"
          ],
          "data": "0x000000000000000000000000eeeeeeeeeeeeeeeeeeeeeeeeeeeeeeeeeeeeeeee56bd8b2fb5a694b655eb242b278d7e07f3ac762b407d3a6bfed16747bd055220a5d0cbb4141078d2bb882070ac7f9f76e0be551df7effd31b07a75c34fec0e0b000000000000000000000000000000000000000000000000000000003b9aca00",
          "blockHash": "0xeb803b3ca88aec231a9c65f1f84be115008b6ed15c23d2233b1ca633847029b8",
          "blockNumber": "0x1ca17cb",
          "transactionHash": "0xa785ee231410f203bc62913b7b25db8e4081c6f4cdef55f9edb1ec2a2c04cd17",
          "transactionIndex": "0x8",
          "logIndex": "0x60",
          "removed": false
        },
        {
          "address": "0xc56ed1e611eb4eea0e35906e21ea65903bdb01f2",
          "topics": [
            "0xbaa7ef9db66a2e95a218100288cf439de5fbe1e4ed665cd1a2f01278242c9fc4",
            "0xdde6e690c3f5bfbca671e9ae33a11d35ffc81c9266656915cc6c65d774b9475a",
            "0x0940004f45c664dd83a0a19e7b8493bbd65ccc9891b5effef606471a00df8c1d"
          ],
          "data": "0x0000000000000000000000000000000000000000000000000000000000000020000000000000000000000000000000000000000000000000000000000000000100000000000000000000000025f7fd8f50d522b266764cd3b230edaa8cbb9f750000000000000000000000000000000000000000000000000000000000000060000000000000000000000000000000000000000000000000000000000000004e010256bd8b2fb5a694b655eb242b278d7e07f3ac762b407d3a6bfed16747bd055220a5d0cbb4141078d2bb882070ac7f9f76e0be551df7effd31b07a75c34fec0e0b010000000000000000000000000000000000000000000000000000000000",
          "blockHash": "0xeb803b3ca88aec231a9c65f1f84be115008b6ed15c23d2233b1ca633847029b8",
          "blockNumber": "0x1ca17cb",
          "transactionHash": "0xa785ee231410f203bc62913b7b25db8e4081c6f4cdef55f9edb1ec2a2c04cd17",
          "transactionIndex": "0x8",
          "logIndex": "0x61",
          "removed": false
        }
      ],
      "logsBloom": "0x00000000000000000000000000000000000000000000000000000000000000000100000000000000000000000000000000000000000000000000000000000000000000000020000000000000000000000000000000020000000000000000000000000000000000000000000000000010000080000000000080000000000000000000000000200000000000000000004000000000000000000000000000000000000000000000000000000000000000000000000000000000000000000000000000000000000000000000000000020000000100000000000200000000000000000000000000000000002000000000000000000010000000000000000000110000",
      "type": "0x2",
      "transactionHash": "0xa785ee231410f203bc62913b7b25db8e4081c6f4cdef55f9edb1ec2a2c04cd17",
      "transactionIndex": "0x8",
      "blockHash": "0xeb803b3ca88aec231a9c65f1f84be115008b6ed15c23d2233b1ca633847029b8",
      "blockNumber": "0x1ca17cb",
      "gasUsed": "0x1bf7f",
      "effectiveGasPrice": "0xecd10",
      "from": "0x25f7fd8f50d522b266764cd3b230edaa8cbb9f75",
      "to": "0xc56ed1e611eb4eea0e35906e21ea65903bdb01f2",
      "contractAddress": null,
      "l1BaseFeeScalar": "0x44d",
      "l1BlobBaseFee": "0x1",
      "l1BlobBaseFeeScalar": "0xa118b",
      "l1Fee": "0xafad361",
      "l1GasPrice": "0x447aec2",
      "l1GasUsed": "0x91a"
    }
  ],
  "libraries": [],
  "pending": [],
  "returns": {},
  "timestamp": 1755811446,
  "chain": 84532,
  "commit": "216b6c4"
}