{
  "transactions": [
    {
      "hash": "0x8725e68979831c663a638a66dc7990e533e953a930b76f743ba3a8982f9ec0c7",
      "transactionType": "CALL",
      "contractName": null,
      "contractAddress": "0x58207331cbf8af87bb6453b610e6579d9878e4ea",
      "function": "deploy(bytes32,string,string,uint8)",
      "arguments": [
        "0x069be72ab836d4eacc02525b7350a78a395da2f1253a40ebafd6630000000000",
        "WrappedSOL",
        "wSOL",
        "9"
      ],
      "transaction": {
        "from": "0x8c1a617bdb47342f9c17ac8750e0b070c372c721",
        "to": "0x58207331cbf8af87bb6453b610e6579d9878e4ea",
        "gas": "0x57de2",
        "value": "0x0",
        "input": "0x23c3601f069be72ab836d4eacc02525b7350a78a395da2f1253a40ebafd6630000000000000000000000000000000000000000000000000000000000000000000000008000000000000000000000000000000000000000000000000000000000000000c00000000000000000000000000000000000000000000000000000000000000009000000000000000000000000000000000000000000000000000000000000000a57726170706564534f4c00000000000000000000000000000000000000000000000000000000000000000000000000000000000000000000000000000000000477534f4c00000000000000000000000000000000000000000000000000000000",
        "nonce": "0x584",
        "chainId": "0x14a34"
      },
      "additionalContracts": [
        {
          "transactionType": "CREATE2",
          "address": "0xc5b9112382f3c87afe8e1a28fa52452af81085ad",
          "initCode": "0x60523d8160223d3973c95c2e1cdc9d5eb52b942e901a1710dc6ad2d1c560195155f3363d3d373d3d363d602036600436635c60da1b60e01b36527fa3f0ad74e5423aebfd80d3ef4346578335a9a72aeaee59ff6cb3582b35133d50545afa5036515af43d6000803e604d573d6000fd5b3d6000f3"
        }
      ],
      "isFixedGasLimit": false
    }
  ],
  "receipts": [
    {
      "status": "0x1",
      "cumulativeGasUsed": "0xa6b273",
      "logs": [
        {
          "address": "0xc5b9112382f3c87afe8e1a28fa52452af81085ad",
          "topics": [
            "0xc7f505b2f371ae2175ee4913f4499e1f2633a7b5936321eed1cdaeb6115181d2"
          ],
          "data": "0x0000000000000000000000000000000000000000000000000000000000000001",
          "blockHash": "0x59456f07810860b571818b236bcfec5a4e473e670bc44d790b0765da9384aadb",
          "blockNumber": "0x1e0835d",
          "transactionHash": "0x8725e68979831c663a638a66dc7990e533e953a930b76f743ba3a8982f9ec0c7",
          "transactionIndex": "0x22",
          "logIndex": "0x150",
          "removed": false
        },
        {
          "address": "0x58207331cbf8af87bb6453b610e6579d9878e4ea",
          "topics": [
            "0x0b84965add45c4d10c5aacc22714edc5f88def8df83d2c1f9d18b45ef2d28783",
            "0x000000000000000000000000c5b9112382f3c87afe8e1a28fa52452af81085ad",
            "0x069be72ab836d4eacc02525b7350a78a395da2f1253a40ebafd6630000000000"
          ],
          "data": "0x0000000000000000000000008c1a617bdb47342f9c17ac8750e0b070c372c721",
          "blockHash": "0x59456f07810860b571818b236bcfec5a4e473e670bc44d790b0765da9384aadb",
          "blockNumber": "0x1e0835d",
          "transactionHash": "0x8725e68979831c663a638a66dc7990e533e953a930b76f743ba3a8982f9ec0c7",
          "transactionIndex": "0x22",
          "logIndex": "0x151",
          "removed": false
        }
      ],
      "logsBloom": "0x00000000000000000000000000000000000040000000000000000000000000000000000000000000000000000000200000000000000000000000000100000000001000000000000000000000000000000000000000000000000000000000000000000000000000000000000000000000000000000000000000000000000000000000000000000000100800000000000000080000000080000000000000000000000008000000000000000000000000000000000000400000003004000000000000000000000000000000000000000000000000000004000000000008000000000001000000008000000000000000000000000800000000000000000000000000",
      "type": "0x2",
      "transactionHash": "0x8725e68979831c663a638a66dc7990e533e953a930b76f743ba3a8982f9ec0c7",
      "transactionIndex": "0x22",
      "blockHash": "0x59456f07810860b571818b236bcfec5a4e473e670bc44d790b0765da9384aadb",
      "blockNumber": "0x1e0835d",
      "gasUsed": "0x3c14a",
      "effectiveGasPrice": "0xf42b9",
      "from": "0x8c1a617bdb47342f9c17ac8750e0b070c372c721",
      "to": "0x58207331cbf8af87bb6453b610e6579d9878e4ea",
      "contractAddress": null,
      "l1BaseFeeScalar": "0x44d",
      "l1BlobBaseFee": "0x1",
      "l1BlobBaseFeeScalar": "0xa118b",
      "l1Fee": "0x3b4",
      "l1GasPrice": "0x196",
      "l1GasUsed": "0x795"
    }
  ],
  "libraries": [],
  "pending": [],
  "returns": {},
  "timestamp": 1758750106806,
  "chain": 84532,
  "commit": "7c1fe08"
}