{
  "transactions": [
    {
      "hash": "0x21c53b9e39b3a128fe4c85d9495e6527d8573d31a3eb895912cc98ff65b83a42",
      "transactionType": "CALL",
      "contractName": null,
      "contractAddress": "0xbb20d7ff5cf9b0915fc4453dbed2b0dba18ebd3d",
      "function": "deploy(bytes32,string,string,uint8)",
      "arguments": [
        "0x6ccf56ff18093bc61462cd67c8aa86216fbad049e41d9bffa0856e5f34af5498",
        "WrappedSPL",
        "wSPL",
        "9"
      ],
      "transaction": {
        "from": "0x8c1a617bdb47342f9c17ac8750e0b070c372c721",
        "to": "0xbb20d7ff5cf9b0915fc4453dbed2b0dba18ebd3d",
        "gas": "0x5301a",
        "value": "0x0",
        "input": "0x23c3601f6ccf56ff18093bc61462cd67c8aa86216fbad049e41d9bffa0856e5f34af5498000000000000000000000000000000000000000000000000000000000000008000000000000000000000000000000000000000000000000000000000000000c00000000000000000000000000000000000000000000000000000000000000009000000000000000000000000000000000000000000000000000000000000000a5772617070656453504c0000000000000000000000000000000000000000000000000000000000000000000000000000000000000000000000000000000000047753504c00000000000000000000000000000000000000000000000000000000",
        "nonce": "0x538",
        "chainId": "0x14a34"
      },
      "additionalContracts": [
        {
          "transactionType": "CREATE2",
          "address": "0x76a41f52506a519fd09e889effca0c7c0b4f9604",
          "initCode": "0x60523d8160223d397300959e02e91b13c79b734055b0274e33b30df4dc60195155f3363d3d373d3d363d602036600436635c60da1b60e01b36527fa3f0ad74e5423aebfd80d3ef4346578335a9a72aeaee59ff6cb3582b35133d50545afa5036515af43d6000803e604d573d6000fd5b3d6000f3"
        }
      ],
      "isFixedGasLimit": false
    }
  ],
  "receipts": [
    {
      "status": "0x1",
      "cumulativeGasUsed": "0x4eeaa0",
      "logs": [
        {
          "address": "0x76a41f52506a519fd09e889effca0c7c0b4f9604",
          "topics": [
            "0xc7f505b2f371ae2175ee4913f4499e1f2633a7b5936321eed1cdaeb6115181d2"
          ],
          "data": "0x0000000000000000000000000000000000000000000000000000000000000001",
          "blockHash": "0x6df8c3cb72f230727d8dd58de7277fccb6cd5eb04181a5196ebda75c4a9d218f",
          "blockNumber": "0x1d75168",
          "blockTimestamp": "0x68c201b0",
          "transactionHash": "0x21c53b9e39b3a128fe4c85d9495e6527d8573d31a3eb895912cc98ff65b83a42",
          "transactionIndex": "0xd",
          "logIndex": "0xdb",
          "removed": false
        },
        {
          "address": "0xbb20d7ff5cf9b0915fc4453dbed2b0dba18ebd3d",
          "topics": [
            "0x0b84965add45c4d10c5aacc22714edc5f88def8df83d2c1f9d18b45ef2d28783",
            "0x00000000000000000000000076a41f52506a519fd09e889effca0c7c0b4f9604",
            "0x6ccf56ff18093bc61462cd67c8aa86216fbad049e41d9bffa0856e5f34af5498"
          ],
          "data": "0x0000000000000000000000008c1a617bdb47342f9c17ac8750e0b070c372c721",
          "blockHash": "0x6df8c3cb72f230727d8dd58de7277fccb6cd5eb04181a5196ebda75c4a9d218f",
          "blockNumber": "0x1d75168",
          "blockTimestamp": "0x68c201b0",
          "transactionHash": "0x21c53b9e39b3a128fe4c85d9495e6527d8573d31a3eb895912cc98ff65b83a42",
          "transactionIndex": "0xd",
          "logIndex": "0xdc",
          "removed": false
        }
      ],
      "logsBloom": "0x00000000000000000000000000000000000000000800000000000000000000000000000000000000000000000000000000000000100000000000010000000000001000000000000000000000000000000000000000000000000200000000000000000000001000000000000000000000000000000000000000400000000000000000000000000000100800000000000000080000000080000000000000000000000000000000000000000090000000000004000000000000000008000000000000000000000000000000000000000000000000000004000000000000000002000000000000000000000000000000000000000000000000000000000000000040",
      "type": "0x2",
      "transactionHash": "0x21c53b9e39b3a128fe4c85d9495e6527d8573d31a3eb895912cc98ff65b83a42",
      "transactionIndex": "0xd",
      "blockHash": "0x6df8c3cb72f230727d8dd58de7277fccb6cd5eb04181a5196ebda75c4a9d218f",
      "blockNumber": "0x1d75168",
      "gasUsed": "0x3c186",
      "effectiveGasPrice": "0xf429f",
      "from": "0x8c1a617bdb47342f9c17ac8750e0b070c372c721",
      "to": "0xbb20d7ff5cf9b0915fc4453dbed2b0dba18ebd3d",
      "contractAddress": null,
      "l1BaseFeeScalar": "0x44d",
      "l1BlobBaseFee": "0x148d8d860",
      "l1BlobBaseFeeScalar": "0xa118b",
      "l1Fee": "0x6d415874e1",
      "l1GasPrice": "0x12",
      "l1GasUsed": "0x80e"
    }
  ],
  "libraries": [],
  "pending": [],
  "returns": {},
  "timestamp": 1757544880417,
  "chain": 84532,
  "commit": "1ae5413"
}