{
  "transactions": [
    {
      "hash": "0x3845b9334a4551348c2e1dc964d0d84281ea7b29010dde8dc681f41c8b174612",
      "transactionType": "CALL",
      "contractName": null,
      "contractAddress": "0x9ccf277d8d671c848410b5c1c0b939b29078d6dc",
      "function": "deploy(bytes32,string,string,uint8)",
      "arguments": [
        "0x6ccf56ff18093bc61462cd67c8aa86216fbad049e41d9bffa0856e5f34af5498",
        "WrappedSPL",
        "wSPL",
        "9"
      ],
      "transaction": {
        "from": "0x8c1a617bdb47342f9c17ac8750e0b070c372c721",
        "to": "0x9ccf277d8d671c848410b5c1c0b939b29078d6dc",
        "gas": "0x5301a",
        "value": "0x0",
        "input": "0x23c3601f6ccf56ff18093bc61462cd67c8aa86216fbad049e41d9bffa0856e5f34af5498000000000000000000000000000000000000000000000000000000000000008000000000000000000000000000000000000000000000000000000000000000c00000000000000000000000000000000000000000000000000000000000000009000000000000000000000000000000000000000000000000000000000000000a5772617070656453504c0000000000000000000000000000000000000000000000000000000000000000000000000000000000000000000000000000000000047753504c00000000000000000000000000000000000000000000000000000000",
        "nonce": "0x569",
        "chainId": "0x14a34"
      },
      "additionalContracts": [
        {
          "transactionType": "CREATE2",
          "address": "0x333e2d362809b6554b8c534a58805ec06315d206",
          "initCode": "0x60523d8160223d3973652fcdf2ced6fdf1055733d71166b2e7671f241860195155f3363d3d373d3d363d602036600436635c60da1b60e01b36527fa3f0ad74e5423aebfd80d3ef4346578335a9a72aeaee59ff6cb3582b35133d50545afa5036515af43d6000803e604d573d6000fd5b3d6000f3"
        }
      ],
      "isFixedGasLimit": false
    }
  ],
  "receipts": [
    {
      "status": "0x1",
      "cumulativeGasUsed": "0x1f0537",
      "logs": [
        {
          "address": "0x333e2d362809b6554b8c534a58805ec06315d206",
          "topics": [
            "0xc7f505b2f371ae2175ee4913f4499e1f2633a7b5936321eed1cdaeb6115181d2"
          ],
          "data": "0x0000000000000000000000000000000000000000000000000000000000000001",
          "blockHash": "0xe480c2a16718cfa62a75f80dc714e07582954470d2c9cd1d141d762ded7d85f7",
          "blockNumber": "0x1d9f28b",
          "transactionHash": "0x3845b9334a4551348c2e1dc964d0d84281ea7b29010dde8dc681f41c8b174612",
          "transactionIndex": "0x4",
          "logIndex": "0x32",
          "removed": false
        },
        {
          "address": "0x9ccf277d8d671c848410b5c1c0b939b29078d6dc",
          "topics": [
            "0x0b84965add45c4d10c5aacc22714edc5f88def8df83d2c1f9d18b45ef2d28783",
            "0x000000000000000000000000333e2d362809b6554b8c534a58805ec06315d206",
            "0x6ccf56ff18093bc61462cd67c8aa86216fbad049e41d9bffa0856e5f34af5498"
          ],
          "data": "0x0000000000000000000000008c1a617bdb47342f9c17ac8750e0b070c372c721",
          "blockHash": "0xe480c2a16718cfa62a75f80dc714e07582954470d2c9cd1d141d762ded7d85f7",
          "blockNumber": "0x1d9f28b",
          "transactionHash": "0x3845b9334a4551348c2e1dc964d0d84281ea7b29010dde8dc681f41c8b174612",
          "transactionIndex": "0x4",
          "logIndex": "0x33",
          "removed": false
        }
      ],
      "logsBloom": "0x00000000000000000000100000000000000000000800000000000000000000000002000000000000000000000000000000000000000000000000010000000000001000000000000000000000000000000000000000000000000002000000000000000000000000000000000000000000000000000000000000000000000000000000000000000000100800000000000000080000000088000000000000000000000000000000000000000000000000000000000000000000000000000000000000004800000000000000000000000000200000000004000000000000000000000000000000000000000000000000080010000000000000000000000000000040",
      "type": "0x2",
      "transactionHash": "0x3845b9334a4551348c2e1dc964d0d84281ea7b29010dde8dc681f41c8b174612",
      "transactionIndex": "0x4",
      "blockHash": "0xe480c2a16718cfa62a75f80dc714e07582954470d2c9cd1d141d762ded7d85f7",
      "blockNumber": "0x1d9f28b",
      "gasUsed": "0x3c186",
      "effectiveGasPrice": "0xf4293",
      "from": "0x8c1a617bdb47342f9c17ac8750e0b070c372c721",
      "to": "0x9ccf277d8d671c848410b5c1c0b939b29078d6dc",
      "contractAddress": null,
      "l1BaseFeeScalar": "0x44d",
      "l1BlobBaseFee": "0x1",
      "l1BlobBaseFeeScalar": "0xa118b",
      "l1Fee": "0x61ad",
      "l1GasPrice": "0x2adf",
      "l1GasUsed": "0x80e"
    }
  ],
  "libraries": [],
  "pending": [],
  "returns": {},
  "timestamp": 1757889527871,
  "chain": 84532,
  "commit": "5674278"
}