{
  "transactions": [
    {
      "hash": "0x13feae62a4b70e5349f908fab4648316b3ff22e9921701f709ab5bba8dc404e4",
      "transactionType": "CALL",
      "contractName": null,
      "contractAddress": "0xeed08a362fc4254864dce24f7b5ddad4efac07d3",
      "function": "deploy(bytes32,string,string,uint8)",
      "arguments": [
        "0x6ccf56ff18093bc61462cd67c8aa86216fbad049e41d9bffa0856e5f34af5498",
        "WrappedSPL",
        "wSPL",
        "9"
      ],
      "transaction": {
        "from": "0x8c1a617bdb47342f9c17ac8750e0b070c372c721",
        "to": "0xeed08a362fc4254864dce24f7b5ddad4efac07d3",
        "gas": "0x5301a",
        "value": "0x0",
        "input": "0x23c3601f6ccf56ff18093bc61462cd67c8aa86216fbad049e41d9bffa0856e5f34af5498000000000000000000000000000000000000000000000000000000000000008000000000000000000000000000000000000000000000000000000000000000c00000000000000000000000000000000000000000000000000000000000000009000000000000000000000000000000000000000000000000000000000000000a5772617070656453504c0000000000000000000000000000000000000000000000000000000000000000000000000000000000000000000000000000000000047753504c00000000000000000000000000000000000000000000000000000000",
        "nonce": "0x577",
        "chainId": "0x14a34"
      },
      "additionalContracts": [
        {
          "transactionType": "CREATE2",
          "address": "0x4752285a93f5d0756bb2d6ed013b40ea8527a8da",
          "initCode": "0x60523d8160223d397322a4738bee805964c0d37fa7e4d994cfc981318f60195155f3363d3d373d3d363d602036600436635c60da1b60e01b36527fa3f0ad74e5423aebfd80d3ef4346578335a9a72aeaee59ff6cb3582b35133d50545afa5036515af43d6000803e604d573d6000fd5b3d6000f3"
        }
      ],
      "isFixedGasLimit": false
    }
  ],
  "receipts": [
    {
      "status": "0x1",
      "cumulativeGasUsed": "0x367a84",
      "logs": [
        {
          "address": "0x4752285a93f5d0756bb2d6ed013b40ea8527a8da",
          "topics": [
            "0xc7f505b2f371ae2175ee4913f4499e1f2633a7b5936321eed1cdaeb6115181d2"
          ],
          "data": "0x0000000000000000000000000000000000000000000000000000000000000001",
          "blockHash": "0x24841d3fc2a781aa9c16b9feb9d9a8afd37b8e1d872332da32724c2ce820d9a7",
          "blockNumber": "0x1da07b7",
          "transactionHash": "0x13feae62a4b70e5349f908fab4648316b3ff22e9921701f709ab5bba8dc404e4",
          "transactionIndex": "0x9",
          "logIndex": "0x86",
          "removed": false
        },
        {
          "address": "0xeed08a362fc4254864dce24f7b5ddad4efac07d3",
          "topics": [
            "0x0b84965add45c4d10c5aacc22714edc5f88def8df83d2c1f9d18b45ef2d28783",
            "0x0000000000000000000000004752285a93f5d0756bb2d6ed013b40ea8527a8da",
            "0x6ccf56ff18093bc61462cd67c8aa86216fbad049e41d9bffa0856e5f34af5498"
          ],
          "data": "0x0000000000000000000000008c1a617bdb47342f9c17ac8750e0b070c372c721",
          "blockHash": "0x24841d3fc2a781aa9c16b9feb9d9a8afd37b8e1d872332da32724c2ce820d9a7",
          "blockNumber": "0x1da07b7",
          "transactionHash": "0x13feae62a4b70e5349f908fab4648316b3ff22e9921701f709ab5bba8dc404e4",
          "transactionIndex": "0x9",
          "logIndex": "0x87",
          "removed": false
        }
      ],
      "logsBloom": "0x00000000000100000000000000000000000000000c00000000000000020000000000000000000000000000000000000000000000000000000000010000010000001000000000800100000000000000000000000000000000000000000000000000000000000000000000000000000000000000000000000000000000000000000000200000000000100800000000000000080000000080000000000000000000000000040000000000000000000000000000000000000000000000000000000000000000000000000000000000000000000000000004002000000000000000000000000000000000000000000000000000000000000000000000000000000040",
      "type": "0x2",
      "transactionHash": "0x13feae62a4b70e5349f908fab4648316b3ff22e9921701f709ab5bba8dc404e4",
      "transactionIndex": "0x9",
      "blockHash": "0x24841d3fc2a781aa9c16b9feb9d9a8afd37b8e1d872332da32724c2ce820d9a7",
      "blockNumber": "0x1da07b7",
      "gasUsed": "0x3c186",
      "effectiveGasPrice": "0xf42ac",
      "from": "0x8c1a617bdb47342f9c17ac8750e0b070c372c721",
      "to": "0xeed08a362fc4254864dce24f7b5ddad4efac07d3",
      "contractAddress": null,
      "l1BaseFeeScalar": "0x44d",
      "l1BlobBaseFee": "0x1",
      "l1BlobBaseFeeScalar": "0xa118b",
      "l1Fee": "0x11f5d",
      "l1GasPrice": "0x7e69",
      "l1GasUsed": "0x80e"
    }
  ],
  "libraries": [],
  "pending": [],
  "returns": {},
  "timestamp": 1757900366566,
  "chain": 84532,
  "commit": "d946f1e"
}