{
  "transactions": [
    {
      "hash": "0xc12265d80924f9b23a043d2c781943ba4828e9db57faad16e2962fbfe345f24b",
      "transactionType": "CALL",
      "contractName": null,
      "contractAddress": "0x11f0fd0aac620f7cb7521b116e413f97d1425c28",
      "function": "deploy(bytes32,string,string,uint8)",
      "arguments": [
        "0x6ccf56ff18093bc61462cd67c8aa86216fbad049e41d9bffa0856e5f34af5498",
        "WrappedSPL",
        "wSPL",
        "9"
      ],
      "transaction": {
        "from": "0x8c1a617bdb47342f9c17ac8750e0b070c372c721",
        "to": "0x11f0fd0aac620f7cb7521b116e413f97d1425c28",
        "gas": "0x57e41",
        "value": "0x0",
        "input": "0x23c3601f6ccf56ff18093bc61462cd67c8aa86216fbad049e41d9bffa0856e5f34af5498000000000000000000000000000000000000000000000000000000000000008000000000000000000000000000000000000000000000000000000000000000c00000000000000000000000000000000000000000000000000000000000000009000000000000000000000000000000000000000000000000000000000000000a5772617070656453504c0000000000000000000000000000000000000000000000000000000000000000000000000000000000000000000000000000000000047753504c00000000000000000000000000000000000000000000000000000000",
        "nonce": "0x498",
        "chainId": "0x14a34"
      },
      "additionalContracts": [
        {
          "transactionType": "CREATE2",
          "address": "0x761b96ea2620e156cec09ca400bc280de4397497",
          "initCode": "0x60523d8160223d39736e740806ec2452b28531c1320cf8db6d3b61384360195155f3363d3d373d3d363d602036600436635c60da1b60e01b36527fa3f0ad74e5423aebfd80d3ef4346578335a9a72aeaee59ff6cb3582b35133d50545afa5036515af43d6000803e604d573d6000fd5b3d6000f3"
        }
      ],
      "isFixedGasLimit": false
    }
  ],
  "receipts": [
    {
      "status": "0x1",
      "cumulativeGasUsed": "0x3fc6d2",
      "logs": [
        {
          "address": "0x761b96ea2620e156cec09ca400bc280de4397497",
          "topics": [
            "0xc7f505b2f371ae2175ee4913f4499e1f2633a7b5936321eed1cdaeb6115181d2"
          ],
          "data": "0x0000000000000000000000000000000000000000000000000000000000000001",
          "blockHash": "0xcb7e08420d7e0a96ac7343bc9329711086f3d0afa7ed12b7a954227775acedb3",
          "blockNumber": "0x1c1eae4",
          "transactionHash": "0xc12265d80924f9b23a043d2c781943ba4828e9db57faad16e2962fbfe345f24b",
          "transactionIndex": "0xc",
          "logIndex": "0x7c",
          "removed": false
        },
        {
          "address": "0x11f0fd0aac620f7cb7521b116e413f97d1425c28",
          "topics": [
            "0x0b84965add45c4d10c5aacc22714edc5f88def8df83d2c1f9d18b45ef2d28783",
            "0x000000000000000000000000761b96ea2620e156cec09ca400bc280de4397497",
            "0x6ccf56ff18093bc61462cd67c8aa86216fbad049e41d9bffa0856e5f34af5498"
          ],
          "data": "0x0000000000000000000000008c1a617bdb47342f9c17ac8750e0b070c372c721",
          "blockHash": "0xcb7e08420d7e0a96ac7343bc9329711086f3d0afa7ed12b7a954227775acedb3",
          "blockNumber": "0x1c1eae4",
          "transactionHash": "0xc12265d80924f9b23a043d2c781943ba4828e9db57faad16e2962fbfe345f24b",
          "transactionIndex": "0xc",
          "logIndex": "0x7d",
          "removed": false
        }
      ],
      "logsBloom": "0x00002000000000000000000000000000000000000800000000000000000000000000000000000000000000000000000000000000000000000000010000000000001000000000000000000000000000000000000000000000000000000000000000000000000000000000000000000000000000000000000000000000000000000000000000000000100800000000000000080000000080000200000000000000000000000000010000000000000000000000000000000000000200000000000000000000000080000000000000000000000000000014000000000000000000000000000000000000000400000000000000020000000000000000000000008040",
      "type": "0x2",
      "transactionHash": "0xc12265d80924f9b23a043d2c781943ba4828e9db57faad16e2962fbfe345f24b",
      "transactionIndex": "0xc",
      "blockHash": "0xcb7e08420d7e0a96ac7343bc9329711086f3d0afa7ed12b7a954227775acedb3",
      "blockNumber": "0x1c1eae4",
      "gasUsed": "0x3c18b",
      "effectiveGasPrice": "0xded59",
      "from": "0x8c1a617bdb47342f9c17ac8750e0b070c372c721",
      "to": "0x11f0fd0aac620f7cb7521b116e413f97d1425c28",
      "contractAddress": null,
      "l1BaseFeeScalar": "0x44d",
      "l1BlobBaseFee": "0x275272",
      "l1BlobBaseFeeScalar": "0xa118b",
      "l1Fee": "0xd122ffc",
      "l1GasPrice": "0xc40b",
      "l1GasUsed": "0x80e"
    }
  ],
  "libraries": [],
  "pending": [],
  "returns": {},
  "timestamp": 1754739882,
  "chain": 84532,
  "commit": "65412f3"
}