{
  "transactions": [
    {
      "hash": "0x9d50ce0cee12df0ddc057ee04f2e3ae9db9791e6d57bfcbd7a55c921b2ed82ea",
      "transactionType": "CALL",
      "contractName": null,
      "contractAddress": "0x93d8a8960112d74c0db4f18e8ee2576728f4d668",
      "function": "deploy(bytes32,string,string,uint8)",
      "arguments": [
        "0x6ccf56ff18093bc61462cd67c8aa86216fbad049e41d9bffa0856e5f34af5498",
        "WrappedSPL",
        "wSPL",
        "9"
      ],
      "transaction": {
        "from": "0x8c1a617bdb47342f9c17ac8750e0b070c372c721",
        "to": "0x93d8a8960112d74c0db4f18e8ee2576728f4d668",
        "gas": "0x5301a",
        "value": "0x0",
        "input": "0x23c3601f6ccf56ff18093bc61462cd67c8aa86216fbad049e41d9bffa0856e5f34af5498000000000000000000000000000000000000000000000000000000000000008000000000000000000000000000000000000000000000000000000000000000c00000000000000000000000000000000000000000000000000000000000000009000000000000000000000000000000000000000000000000000000000000000a5772617070656453504c0000000000000000000000000000000000000000000000000000000000000000000000000000000000000000000000000000000000047753504c00000000000000000000000000000000000000000000000000000000",
        "nonce": "0x54a",
        "chainId": "0x14a34"
      },
      "additionalContracts": [
        {
          "transactionType": "CREATE2",
          "address": "0xf8d6970486762fc2558726bd9ee026886675d129",
          "initCode": "0x60523d8160223d3973e79fe3b056e1cf928efd42b6bd89e85f93f1a48860195155f3363d3d373d3d363d602036600436635c60da1b60e01b36527fa3f0ad74e5423aebfd80d3ef4346578335a9a72aeaee59ff6cb3582b35133d50545afa5036515af43d6000803e604d573d6000fd5b3d6000f3"
        }
      ],
      "isFixedGasLimit": false
    }
  ],
  "receipts": [
    {
      "status": "0x1",
      "cumulativeGasUsed": "0x5cec73",
      "logs": [
        {
          "address": "0xf8d6970486762fc2558726bd9ee026886675d129",
          "topics": [
            "0xc7f505b2f371ae2175ee4913f4499e1f2633a7b5936321eed1cdaeb6115181d2"
          ],
          "data": "0x0000000000000000000000000000000000000000000000000000000000000001",
          "blockHash": "0xad2dfdb5eb4e7198b0aa443e838224ba9afb861df0e152937eca9d14337a1059",
          "blockNumber": "0x1d7eba3",
          "transactionHash": "0x9d50ce0cee12df0ddc057ee04f2e3ae9db9791e6d57bfcbd7a55c921b2ed82ea",
          "transactionIndex": "0x11",
          "logIndex": "0x1f",
          "removed": false
        },
        {
          "address": "0x93d8a8960112d74c0db4f18e8ee2576728f4d668",
          "topics": [
            "0x0b84965add45c4d10c5aacc22714edc5f88def8df83d2c1f9d18b45ef2d28783",
            "0x000000000000000000000000f8d6970486762fc2558726bd9ee026886675d129",
            "0x6ccf56ff18093bc61462cd67c8aa86216fbad049e41d9bffa0856e5f34af5498"
          ],
          "data": "0x0000000000000000000000008c1a617bdb47342f9c17ac8750e0b070c372c721",
          "blockHash": "0xad2dfdb5eb4e7198b0aa443e838224ba9afb861df0e152937eca9d14337a1059",
          "blockNumber": "0x1d7eba3",
          "transactionHash": "0x9d50ce0cee12df0ddc057ee04f2e3ae9db9791e6d57bfcbd7a55c921b2ed82ea",
          "transactionIndex": "0x11",
          "logIndex": "0x20",
          "removed": false
        }
      ],
      "logsBloom": "0x00000000000000000000000000000040000000000800000000000000000000000000000004000000000000000000000000000000000000000000010000000000001000000400000000000000000000000000000000000000000000010000000000000000000000000000000000000000000000000000000000000000000000000000000000000000100802000200000000080000000080000000000000000000000000000000000400000000000000000000000800000000000000000001000000000000000000000000000000000000000000000004000000000000000000000000000000000000000000000000000000000000000000000000000000000040",
      "type": "0x2",
      "transactionHash": "0x9d50ce0cee12df0ddc057ee04f2e3ae9db9791e6d57bfcbd7a55c921b2ed82ea",
      "transactionIndex": "0x11",
      "blockHash": "0xad2dfdb5eb4e7198b0aa443e838224ba9afb861df0e152937eca9d14337a1059",
      "blockNumber": "0x1d7eba3",
      "gasUsed": "0x3c186",
      "effectiveGasPrice": "0xf4283",
      "from": "0x8c1a617bdb47342f9c17ac8750e0b070c372c721",
      "to": "0x93d8a8960112d74c0db4f18e8ee2576728f4d668",
      "contractAddress": null,
      "l1BaseFeeScalar": "0x44d",
      "l1BlobBaseFee": "0x1",
      "l1BlobBaseFeeScalar": "0xa118b",
      "l1Fee": "0x16217",
      "l1GasPrice": "0x9bcc",
      "l1GasUsed": "0x80e"
    }
  ],
  "libraries": [],
  "pending": [],
  "returns": {},
  "timestamp": 1757623847919,
  "chain": 84532,
  "commit": "1008d20"
}