{
  "transactions": [
    {
      "hash": "0x131f764604015fa91de33f66752b0bab2101a55a29c04bf337468c8ce8341033",
      "transactionType": "CALL",
      "contractName": null,
      "contractAddress": "0x58207331cbf8af87bb6453b610e6579d9878e4ea",
      "function": "deploy(bytes32,string,string,uint8)",
      "arguments": [
        "0x6ccf56ff18093bc61462cd67c8aa86216fbad049e41d9bffa0856e5f34af5498",
        "WrappedSPL",
        "wSPL",
        "9"
      ],
      "transaction": {
        "from": "0x8c1a617bdb47342f9c17ac8750e0b070c372c721",
        "to": "0x58207331cbf8af87bb6453b610e6579d9878e4ea",
        "gas": "0x5301a",
        "value": "0x0",
        "input": "0x23c3601f6ccf56ff18093bc61462cd67c8aa86216fbad049e41d9bffa0856e5f34af5498000000000000000000000000000000000000000000000000000000000000008000000000000000000000000000000000000000000000000000000000000000c00000000000000000000000000000000000000000000000000000000000000009000000000000000000000000000000000000000000000000000000000000000a5772617070656453504c0000000000000000000000000000000000000000000000000000000000000000000000000000000000000000000000000000000000047753504c00000000000000000000000000000000000000000000000000000000",
        "nonce": "0x585",
        "chainId": "0x14a34"
      },
      "additionalContracts": [
        {
          "transactionType": "CREATE2",
          "address": "0x955c7356776f9304fed38ed5aec5699436c7c614",
          "initCode": "0x60523d8160223d3973c95c2e1cdc9d5eb52b942e901a1710dc6ad2d1c560195155f3363d3d373d3d363d602036600436635c60da1b60e01b36527fa3f0ad74e5423aebfd80d3ef4346578335a9a72aeaee59ff6cb3582b35133d50545afa5036515af43d6000803e604d573d6000fd5b3d6000f3"
        }
      ],
      "isFixedGasLimit": false
    }
  ],
  "receipts": [
    {
      "status": "0x1",
      "cumulativeGasUsed": "0x54c1ec",
      "logs": [
        {
          "address": "0x955c7356776f9304fed38ed5aec5699436c7c614",
          "topics": [
            "0xc7f505b2f371ae2175ee4913f4499e1f2633a7b5936321eed1cdaeb6115181d2"
          ],
          "data": "0x0000000000000000000000000000000000000000000000000000000000000001",
          "blockHash": "0x224358e3ea7ef5f9359329ed1ce3638bb0beb0a66c58998944ed29ab3bee935a",
          "blockNumber": "0x1e08361",
          "transactionHash": "0x131f764604015fa91de33f66752b0bab2101a55a29c04bf337468c8ce8341033",
          "transactionIndex": "0x32",
          "logIndex": "0x91",
          "removed": false
        },
        {
          "address": "0x58207331cbf8af87bb6453b610e6579d9878e4ea",
          "topics": [
            "0x0b84965add45c4d10c5aacc22714edc5f88def8df83d2c1f9d18b45ef2d28783",
            "0x000000000000000000000000955c7356776f9304fed38ed5aec5699436c7c614",
            "0x6ccf56ff18093bc61462cd67c8aa86216fbad049e41d9bffa0856e5f34af5498"
          ],
          "data": "0x0000000000000000000000008c1a617bdb47342f9c17ac8750e0b070c372c721",
          "blockHash": "0x224358e3ea7ef5f9359329ed1ce3638bb0beb0a66c58998944ed29ab3bee935a",
          "blockNumber": "0x1e08361",
          "transactionHash": "0x131f764604015fa91de33f66752b0bab2101a55a29c04bf337468c8ce8341033",
          "transactionIndex": "0x32",
          "logIndex": "0x92",
          "removed": false
        }
      ],
      "logsBloom": "0x00000000000000000000000000000000000000000800000000000000000000008000000000000000000000000000200000000000000000000000010000000000001000000080000000800000000000000000000000000000000000000000000000000000000000000000000000000000000000000000000000000000000000000000000000000000100800000000000000080000000080000000000000000000000000000000000000000000400000000000000000000000002000000000000000000000000000000020000000000000000000000004000000000008000000000000000000000000000000000000000000000000000000000000000000002040",
      "type": "0x2",
      "transactionHash": "0x131f764604015fa91de33f66752b0bab2101a55a29c04bf337468c8ce8341033",
      "transactionIndex": "0x32",
      "blockHash": "0x224358e3ea7ef5f9359329ed1ce3638bb0beb0a66c58998944ed29ab3bee935a",
      "blockNumber": "0x1e08361",
      "gasUsed": "0x3c186",
      "effectiveGasPrice": "0xf42bc",
      "from": "0x8c1a617bdb47342f9c17ac8750e0b070c372c721",
      "to": "0x58207331cbf8af87bb6453b610e6579d9878e4ea",
      "contractAddress": null,
      "l1BaseFeeScalar": "0x44d",
      "l1BlobBaseFee": "0x1",
      "l1BlobBaseFeeScalar": "0xa118b",
      "l1Fee": "0x460",
      "l1GasPrice": "0x1c8",
      "l1GasUsed": "0x80e"
    }
  ],
  "libraries": [],
  "pending": [],
  "returns": {},
  "timestamp": 1758750115349,
  "chain": 84532,
  "commit": "7c1fe08"
}