{
  "transactions": [
    {
      "hash": "0x22ff9febee3e3a9979e6ca8b312ba6a2a321859c24bcd585698549246f5ed778",
      "transactionType": "CALL",
      "contractName": null,
      "contractAddress": "0x571fe107b5443f92a1098860aca7f292e35523de",
      "function": "deploy(bytes32,string,string,uint8)",
      "arguments": [
        "0x069be72ab836d4eacc02525b7350a78a395da2f1253a40ebafd6630000000000",
        "WrappedSOL",
        "wSOL",
        "9"
      ],
      "transaction": {
        "from": "0x25f7fd8f50d522b266764cd3b230edaa8cbb9f75",
        "to": "0x571fe107b5443f92a1098860aca7f292e35523de",
        "gas": "0x57de2",
        "value": "0x0",
        "input": "0x23c3601f069be72ab836d4eacc02525b7350a78a395da2f1253a40ebafd6630000000000000000000000000000000000000000000000000000000000000000000000008000000000000000000000000000000000000000000000000000000000000000c00000000000000000000000000000000000000000000000000000000000000009000000000000000000000000000000000000000000000000000000000000000a57726170706564534f4c00000000000000000000000000000000000000000000000000000000000000000000000000000000000000000000000000000000000477534f4c00000000000000000000000000000000000000000000000000000000",
        "nonce": "0x20d",
        "chainId": "0x14a34"
      },
      "additionalContracts": [
        {
          "transactionType": "CREATE2",
          "address": "0x5267009fe9c5faa329856b88bbdf881fee01a8b7",
          "initCode": "0x60523d8160223d39739bbf3fcb43dc1f5694abfddb59d1c759c96ec6e360195155f3363d3d373d3d363d602036600436635c60da1b60e01b36527fa3f0ad74e5423aebfd80d3ef4346578335a9a72aeaee59ff6cb3582b35133d50545afa5036515af43d6000803e604d573d6000fd5b3d6000f3"
        }
      ],
      "isFixedGasLimit": false
    }
  ],
  "receipts": [
    {
      "status": "0x1",
      "cumulativeGasUsed": "0x2393b8",
      "logs": [
        {
          "address": "0x5267009fe9c5faa329856b88bbdf881fee01a8b7",
          "topics": [
            "0xc7f505b2f371ae2175ee4913f4499e1f2633a7b5936321eed1cdaeb6115181d2"
          ],
          "data": "0x0000000000000000000000000000000000000000000000000000000000000001",
          "blockHash": "0xf81149137c7dbbec14da67de3246f56d544c8f83f81f22b5b52a90e080b0b213",
          "blockNumber": "0x1ca111a",
          "transactionHash": "0x22ff9febee3e3a9979e6ca8b312ba6a2a321859c24bcd585698549246f5ed778",
          "transactionIndex": "0xf",
          "logIndex": "0x44",
          "removed": false
        },
        {
          "address": "0x571fe107b5443f92a1098860aca7f292e35523de",
          "topics": [
            "0x0b84965add45c4d10c5aacc22714edc5f88def8df83d2c1f9d18b45ef2d28783",
            "0x0000000000000000000000005267009fe9c5faa329856b88bbdf881fee01a8b7",
            "0x069be72ab836d4eacc02525b7350a78a395da2f1253a40ebafd6630000000000"
          ],
          "data": "0x00000000000000000000000025f7fd8f50d522b266764cd3b230edaa8cbb9f75",
          "blockHash": "0xf81149137c7dbbec14da67de3246f56d544c8f83f81f22b5b52a90e080b0b213",
          "blockNumber": "0x1ca111a",
          "transactionHash": "0x22ff9febee3e3a9979e6ca8b312ba6a2a321859c24bcd585698549246f5ed778",
          "transactionIndex": "0xf",
          "logIndex": "0x45",
          "removed": false
        }
      ],
      "logsBloom": "0x00000000000000000000000000000000000000000000000000400200000000000000000020000000000000000000000000000000000000000000000100000000001000000080000000000000000000000000000000000000000000000000000000000000000000000000000008000000000000000000000000000000000000000000000000000000100800000000000000080000000080000000000000000000000000000000000000000000000000001000000000000000001000000000100000000000000000000000000000000000000000000005000000000000000000000000000000000000000000000000000000000800000000000000000000000200",
      "type": "0x2",
      "transactionHash": "0x22ff9febee3e3a9979e6ca8b312ba6a2a321859c24bcd585698549246f5ed778",
      "transactionIndex": "0xf",
      "blockHash": "0xf81149137c7dbbec14da67de3246f56d544c8f83f81f22b5b52a90e080b0b213",
      "blockNumber": "0x1ca111a",
      "gasUsed": "0x3c14a",
      "effectiveGasPrice": "0xf07a9",
      "from": "0x25f7fd8f50d522b266764cd3b230edaa8cbb9f75",
      "to": "0x571fe107b5443f92a1098860aca7f292e35523de",
      "contractAddress": null,
      "l1BaseFeeScalar": "0x44d",
      "l1BlobBaseFee": "0x39",
      "l1BlobBaseFeeScalar": "0xa118b",
      "l1Fee": "0x2456a8b",
      "l1GasPrice": "0x111cb9f",
      "l1GasUsed": "0x788"
    }
  ],
  "libraries": [],
  "pending": [],
  "returns": {},
  "timestamp": 1755808021,
  "chain": 84532,
  "commit": "28a3b9e"
}