{
  "transactions": [
    {
      "hash": "0x636a098560b87eafa57d7a36733ba243087bcd4e2bd3f989dc4d844e0c99a025",
      "transactionType": "CALL",
      "contractName": null,
      "contractAddress": "0x8316debfdc3093dffb10233b76f32481b7386950",
      "function": "deploy(bytes32,string,string,uint8)",
      "arguments": [
        "0x6ccf56ff18093bc61462cd67c8aa86216fbad049e41d9bffa0856e5f34af5498",
        "WrappedSPL",
        "wSPL",
        "9"
      ],
      "transaction": {
        "from": "0x25f7fd8f50d522b266764cd3b230edaa8cbb9f75",
        "to": "0x8316debfdc3093dffb10233b76f32481b7386950",
        "gas": "0x5301a",
        "value": "0x0",
        "input": "0x23c3601f6ccf56ff18093bc61462cd67c8aa86216fbad049e41d9bffa0856e5f34af5498000000000000000000000000000000000000000000000000000000000000008000000000000000000000000000000000000000000000000000000000000000c00000000000000000000000000000000000000000000000000000000000000009000000000000000000000000000000000000000000000000000000000000000a5772617070656453504c0000000000000000000000000000000000000000000000000000000000000000000000000000000000000000000000000000000000047753504c00000000000000000000000000000000000000000000000000000000",
        "nonce": "0x23c",
        "chainId": "0x14a34"
      },
      "additionalContracts": [
        {
          "transactionType": "CREATE2",
          "address": "0xcf8e666c57651670aa7266aba3e334e3600b2306",
          "initCode": "0x60523d8160223d397375a7c560bd5d65dbe8094b97c5e5a9c1c2d9863060195155f3363d3d373d3d363d602036600436635c60da1b60e01b36527fa3f0ad74e5423aebfd80d3ef4346578335a9a72aeaee59ff6cb3582b35133d50545afa5036515af43d6000803e604d573d6000fd5b3d6000f3"
        }
      ],
      "isFixedGasLimit": false
    }
  ],
  "receipts": [
    {
      "status": "0x1",
      "cumulativeGasUsed": "0x10e1b6a",
      "logs": [
        {
          "address": "0xcf8e666c57651670aa7266aba3e334e3600b2306",
          "topics": [
            "0xc7f505b2f371ae2175ee4913f4499e1f2633a7b5936321eed1cdaeb6115181d2"
          ],
          "data": "0x0000000000000000000000000000000000000000000000000000000000000001",
          "blockHash": "0x132b5cf49e6a95d32f9037073047390d74d73afc50860ccdfbba36e7f6056f34",
          "blockNumber": "0x1e05a9e",
          "transactionHash": "0x636a098560b87eafa57d7a36733ba243087bcd4e2bd3f989dc4d844e0c99a025",
          "transactionIndex": "0x17",
          "logIndex": "0x17e",
          "removed": false
        },
        {
          "address": "0x8316debfdc3093dffb10233b76f32481b7386950",
          "topics": [
            "0x0b84965add45c4d10c5aacc22714edc5f88def8df83d2c1f9d18b45ef2d28783",
            "0x000000000000000000000000cf8e666c57651670aa7266aba3e334e3600b2306",
            "0x6ccf56ff18093bc61462cd67c8aa86216fbad049e41d9bffa0856e5f34af5498"
          ],
          "data": "0x00000000000000000000000025f7fd8f50d522b266764cd3b230edaa8cbb9f75",
          "blockHash": "0x132b5cf49e6a95d32f9037073047390d74d73afc50860ccdfbba36e7f6056f34",
          "blockNumber": "0x1e05a9e",
          "transactionHash": "0x636a098560b87eafa57d7a36733ba243087bcd4e2bd3f989dc4d844e0c99a025",
          "transactionIndex": "0x17",
          "logIndex": "0x17f",
          "removed": false
        }
      ],
      "logsBloom": "0x00000000000000000000000000200000000000000800000000000000000000000000400000000000000000000000000000000000000000000001010000000000001000000010000000000200000000000000000000000000000000000800000000000000000000000000000000004000000000000000000000000000000000000000000000000000100800000000000000080000000080000000000000000000000000000000000000000000000000000000000000000080000000000000000000000000000000000000000000000000000000000004000000000000000000000000000000000000000000000000000000000000000000000000008000000040",
      "type": "0x2",
      "transactionHash": "0x636a098560b87eafa57d7a36733ba243087bcd4e2bd3f989dc4d844e0c99a025",
      "transactionIndex": "0x17",
      "blockHash": "0x132b5cf49e6a95d32f9037073047390d74d73afc50860ccdfbba36e7f6056f34",
      "blockNumber": "0x1e05a9e",
      "gasUsed": "0x3c186",
      "effectiveGasPrice": "0xf4292",
      "from": "0x25f7fd8f50d522b266764cd3b230edaa8cbb9f75",
      "to": "0x8316debfdc3093dffb10233b76f32481b7386950",
      "contractAddress": null,
      "l1BaseFeeScalar": "0x44d",
      "l1BlobBaseFee": "0x1",
      "l1BlobBaseFeeScalar": "0xa118b",
      "l1Fee": "0x17c4",
      "l1GasPrice": "0xa52",
      "l1GasUsed": "0x80e"
    }
  ],
  "libraries": [],
  "pending": [],
  "returns": {},
  "timestamp": 1758729245,
  "chain": 84532,
  "commit": "e3209fe"
}