{
  "transactions": [
    {
      "hash": "0x31d687a6ac964dce9ffb9d3092b1912401353b3c06c7ffc1ecc222783855ba76",
      "transactionType": "CALL",
      "contractName": null,
      "contractAddress": "0xa53364490e9404699aad01258c960b4a64bfe4d9",
      "function": "deploy(bytes32,string,string,uint8)",
      "arguments": [
        "0x6ccf56ff18093bc61462cd67c8aa86216fbad049e41d9bffa0856e5f34af5498",
        "WrappedSPL",
        "wSPL",
        "9"
      ],
      "transaction": {
        "from": "0x25f7fd8f50d522b266764cd3b230edaa8cbb9f75",
        "to": "0xa53364490e9404699aad01258c960b4a64bfe4d9",
        "gas": "0x57e41",
        "value": "0x0",
        "input": "0x23c3601f6ccf56ff18093bc61462cd67c8aa86216fbad049e41d9bffa0856e5f34af5498000000000000000000000000000000000000000000000000000000000000008000000000000000000000000000000000000000000000000000000000000000c00000000000000000000000000000000000000000000000000000000000000009000000000000000000000000000000000000000000000000000000000000000a5772617070656453504c0000000000000000000000000000000000000000000000000000000000000000000000000000000000000000000000000000000000047753504c00000000000000000000000000000000000000000000000000000000",
        "nonce": "0x1ec",
        "chainId": "0x14a34"
      },
      "additionalContracts": [
        {
          "transactionType": "CREATE2",
          "address": "0x583b43f642f9496827b65d5af4173f3de4a7e9d9",
          "initCode": "0x60523d8160223d39734b4375d8d11efddd4bb1496ae47780d22d81619460195155f3363d3d373d3d363d602036600436635c60da1b60e01b36527fa3f0ad74e5423aebfd80d3ef4346578335a9a72aeaee59ff6cb3582b35133d50545afa5036515af43d6000803e604d573d6000fd5b3d6000f3"
        }
      ],
      "isFixedGasLimit": false
    }
  ],
  "receipts": [
    {
      "status": "0x1",
      "cumulativeGasUsed": "0x83aa5",
      "logs": [
        {
          "address": "0x583b43f642f9496827b65d5af4173f3de4a7e9d9",
          "topics": [
            "0xc7f505b2f371ae2175ee4913f4499e1f2633a7b5936321eed1cdaeb6115181d2"
          ],
          "data": "0x0000000000000000000000000000000000000000000000000000000000000001",
          "blockHash": "0x23e01e438bda274611ccc2f65564edda8e919780221334f010438cf5d2f3c968",
          "blockNumber": "0x1c16933",
          "transactionHash": "0x31d687a6ac964dce9ffb9d3092b1912401353b3c06c7ffc1ecc222783855ba76",
          "transactionIndex": "0x4",
          "logIndex": "0x4",
          "removed": false
        },
        {
          "address": "0xa53364490e9404699aad01258c960b4a64bfe4d9",
          "topics": [
            "0x0b84965add45c4d10c5aacc22714edc5f88def8df83d2c1f9d18b45ef2d28783",
            "0x000000000000000000000000583b43f642f9496827b65d5af4173f3de4a7e9d9",
            "0x6ccf56ff18093bc61462cd67c8aa86216fbad049e41d9bffa0856e5f34af5498"
          ],
          "data": "0x00000000000000000000000025f7fd8f50d522b266764cd3b230edaa8cbb9f75",
          "blockHash": "0x23e01e438bda274611ccc2f65564edda8e919780221334f010438cf5d2f3c968",
          "blockNumber": "0x1c16933",
          "transactionHash": "0x31d687a6ac964dce9ffb9d3092b1912401353b3c06c7ffc1ecc222783855ba76",
          "transactionIndex": "0x4",
          "logIndex": "0x5",
          "removed": false
        }
      ],
      "logsBloom": "0x00000000000000000000000000000000000000000800000000000000000000000000000000000000100000000000000000000001000000000000010000000000001000000000202000000000000000000000000000000000000000000000000000000000000000000000000000000000000000400800008000000000000000000000000000000000100800000000000000080000000080000000000000000000000000000000000000000000000000000000000000000000000000000000000000000000000000000000000000000000000000000004000000000000000000000000000002000000000000000000000000000000000000000000000000010040",
      "type": "0x2",
      "transactionHash": "0x31d687a6ac964dce9ffb9d3092b1912401353b3c06c7ffc1ecc222783855ba76",
      "transactionIndex": "0x4",
      "blockHash": "0x23e01e438bda274611ccc2f65564edda8e919780221334f010438cf5d2f3c968",
      "blockNumber": "0x1c16933",
      "gasUsed": "0x3c18b",
      "effectiveGasPrice": "0xf427c",
      "from": "0x25f7fd8f50d522b266764cd3b230edaa8cbb9f75",
      "to": "0xa53364490e9404699aad01258c960b4a64bfe4d9",
      "contractAddress": null,
      "l1BaseFeeScalar": "0x44d",
      "l1BlobBaseFee": "0x6a82fa9",
      "l1BlobBaseFeeScalar": "0xa118b",
      "l1Fee": "0x2363bfba6",
      "l1GasPrice": "0x48558",
      "l1GasUsed": "0x80e"
    }
  ],
  "libraries": [],
  "pending": [],
  "returns": {},
  "timestamp": 1754673478,
  "chain": 84532,
  "commit": "b681a2e"
}