{
  "transactions": [
    {
      "hash": "0x1721e2ca4bc25af3b0f1470838ab77da7ea80754674b1c39ac4a04e01095a1f4",
      "transactionType": "CALL",
      "contractName": null,
      "contractAddress": "0x105f6bce37aa9a96782e6c029cd2a0c0c349a287",
      "function": "deploy(bytes32,string,string,uint8)",
      "arguments": [
        "0x6ccf56ff18093bc61462cd67c8aa86216fbad049e41d9bffa0856e5f34af5498",
        "WrappedSPL",
        "wSPL",
        "9"
      ],
      "transaction": {
        "from": "0x25f7fd8f50d522b266764cd3b230edaa8cbb9f75",
        "to": "0x105f6bce37aa9a96782e6c029cd2a0c0c349a287",
        "gas": "0x5301a",
        "value": "0x0",
        "input": "0x23c3601f6ccf56ff18093bc61462cd67c8aa86216fbad049e41d9bffa0856e5f34af5498000000000000000000000000000000000000000000000000000000000000008000000000000000000000000000000000000000000000000000000000000000c00000000000000000000000000000000000000000000000000000000000000009000000000000000000000000000000000000000000000000000000000000000a5772617070656453504c0000000000000000000000000000000000000000000000000000000000000000000000000000000000000000000000000000000000047753504c00000000000000000000000000000000000000000000000000000000",
        "nonce": "0x221",
        "chainId": "0x14a34"
      },
      "additionalContracts": [
        {
          "transactionType": "CREATE2",
          "address": "0xf6a90921a3967040053c12d011625916e8dc1ea2",
          "initCode": "0x60523d8160223d39734b27e55e4cda4f3181fc5f3b72bf61ab61b107dd60195155f3363d3d373d3d363d602036600436635c60da1b60e01b36527fa3f0ad74e5423aebfd80d3ef4346578335a9a72aeaee59ff6cb3582b35133d50545afa5036515af43d6000803e604d573d6000fd5b3d6000f3"
        }
      ],
      "isFixedGasLimit": false
    }
  ],
  "receipts": [
    {
      "status": "0x1",
      "cumulativeGasUsed": "0x50a749",
      "logs": [
        {
          "address": "0xf6a90921a3967040053c12d011625916e8dc1ea2",
          "topics": [
            "0xc7f505b2f371ae2175ee4913f4499e1f2633a7b5936321eed1cdaeb6115181d2"
          ],
          "data": "0x0000000000000000000000000000000000000000000000000000000000000001",
          "blockHash": "0xa612300da6d75ce2e1eaa8eb4fbb956518ac348bdf66a247087c7965caa48582",
          "blockNumber": "0x1ca2133",
          "transactionHash": "0x1721e2ca4bc25af3b0f1470838ab77da7ea80754674b1c39ac4a04e01095a1f4",
          "transactionIndex": "0x11",
          "logIndex": "0xaa",
          "removed": false
        },
        {
          "address": "0x105f6bce37aa9a96782e6c029cd2a0c0c349a287",
          "topics": [
            "0x0b84965add45c4d10c5aacc22714edc5f88def8df83d2c1f9d18b45ef2d28783",
            "0x000000000000000000000000f6a90921a3967040053c12d011625916e8dc1ea2",
            "0x6ccf56ff18093bc61462cd67c8aa86216fbad049e41d9bffa0856e5f34af5498"
          ],
          "data": "0x00000000000000000000000025f7fd8f50d522b266764cd3b230edaa8cbb9f75",
          "blockHash": "0xa612300da6d75ce2e1eaa8eb4fbb956518ac348bdf66a247087c7965caa48582",
          "blockNumber": "0x1ca2133",
          "transactionHash": "0x1721e2ca4bc25af3b0f1470838ab77da7ea80754674b1c39ac4a04e01095a1f4",
          "transactionIndex": "0x11",
          "logIndex": "0xab",
          "removed": false
        }
      ],
      "logsBloom": "0x00000000000000000000000000000000000000000800000000000000000000002000000000000000000000000000000000000000000000000000010000000000001000000000000000000000000000000000000000000000000000000000000000000000000000000020000000000000000000000000000000000000000000000000000000000000100800000000200000080000800080000000000000000000000100000000000000000000000000000000000000000000000000000000000040000000000000000000000000000000000000000004000000000002000000000000000000000000000000000000000000000000008000000000000040000040",
      "type": "0x2",
      "transactionHash": "0x1721e2ca4bc25af3b0f1470838ab77da7ea80754674b1c39ac4a04e01095a1f4",
      "transactionIndex": "0x11",
      "blockHash": "0xa612300da6d75ce2e1eaa8eb4fbb956518ac348bdf66a247087c7965caa48582",
      "blockNumber": "0x1ca2133",
      "gasUsed": "0x3c186",
      "effectiveGasPrice": "0xf427a",
      "from": "0x25f7fd8f50d522b266764cd3b230edaa8cbb9f75",
      "to": "0x105f6bce37aa9a96782e6c029cd2a0c0c349a287",
      "contractAddress": null,
      "l1BaseFeeScalar": "0x44d",
      "l1BlobBaseFee": "0x1",
      "l1BlobBaseFeeScalar": "0xa118b",
      "l1Fee": "0xa043837",
      "l1GasPrice": "0x4694a11",
      "l1GasUsed": "0x80e"
    }
  ],
  "libraries": [],
  "pending": [],
  "returns": {},
  "timestamp": 1755816263,
  "chain": 84532,
  "commit": "216b6c4"
}