{
  "transactions": [
    {
      "hash": "0x7c76d9f894e89d27a55be04b767c1191e696c8c6e825971c230e578f4e13a019",
      "transactionType": "CALL",
      "contractName": null,
      "contractAddress": "0xb07183274d9eda8631c1e59476f6e75da5356e77",
      "function": "deploy(bytes32,string,string,uint8)",
      "arguments": [
        "0x069be72ab836d4eacc02525b7350a78a395da2f1253a40ebafd6630000000000",
        "WrappedSOL",
        "wSOL",
        "9"
      ],
      "transaction": {
        "from": "0x25f7fd8f50d522b266764cd3b230edaa8cbb9f75",
        "to": "0xb07183274d9eda8631c1e59476f6e75da5356e77",
        "gas": "0x52fcd",
        "value": "0x0",
        "input": "0x23c3601f069be72ab836d4eacc02525b7350a78a395da2f1253a40ebafd6630000000000000000000000000000000000000000000000000000000000000000000000008000000000000000000000000000000000000000000000000000000000000000c00000000000000000000000000000000000000000000000000000000000000009000000000000000000000000000000000000000000000000000000000000000a57726170706564534f4c00000000000000000000000000000000000000000000000000000000000000000000000000000000000000000000000000000000000477534f4c00000000000000000000000000000000000000000000000000000000",
        "nonce": "0x1ff",
        "chainId": "0x14a34"
      },
      "additionalContracts": [
        {
          "transactionType": "CREATE2",
          "address": "0xb64aec5cb44247f75c490c2b1e93b2809b32307b",
          "initCode": "0x60523d8160223d3973a0ba7c73fc3261beb8b88d67a4378808d893bc9260195155f3363d3d373d3d363d602036600436635c60da1b60e01b36527fa3f0ad74e5423aebfd80d3ef4346578335a9a72aeaee59ff6cb3582b35133d50545afa5036515af43d6000803e604d573d6000fd5b3d6000f3"
        }
      ],
      "isFixedGasLimit": false
    }
  ],
  "receipts": [
    {
      "status": "0x1",
      "cumulativeGasUsed": "0x393f15",
      "logs": [
        {
          "address": "0xb64aec5cb44247f75c490c2b1e93b2809b32307b",
          "topics": [
            "0xc7f505b2f371ae2175ee4913f4499e1f2633a7b5936321eed1cdaeb6115181d2"
          ],
          "data": "0x0000000000000000000000000000000000000000000000000000000000000001",
          "blockHash": "0xb84091b288fe749a26cc35edf3713b56d2361cb9cb947c2f6b410afd42dcd84b",
          "blockNumber": "0x1c382ed",
          "transactionHash": "0x7c76d9f894e89d27a55be04b767c1191e696c8c6e825971c230e578f4e13a019",
          "transactionIndex": "0x15",
          "logIndex": "0x4f",
          "removed": false
        },
        {
          "address": "0xb07183274d9eda8631c1e59476f6e75da5356e77",
          "topics": [
            "0x0b84965add45c4d10c5aacc22714edc5f88def8df83d2c1f9d18b45ef2d28783",
            "0x000000000000000000000000b64aec5cb44247f75c490c2b1e93b2809b32307b",
            "0x069be72ab836d4eacc02525b7350a78a395da2f1253a40ebafd6630000000000"
          ],
          "data": "0x00000000000000000000000025f7fd8f50d522b266764cd3b230edaa8cbb9f75",
          "blockHash": "0xb84091b288fe749a26cc35edf3713b56d2361cb9cb947c2f6b410afd42dcd84b",
          "blockNumber": "0x1c382ed",
          "transactionHash": "0x7c76d9f894e89d27a55be04b767c1191e696c8c6e825971c230e578f4e13a019",
          "transactionIndex": "0x15",
          "logIndex": "0x50",
          "removed": false
        }
      ],
      "logsBloom": "0x00000000000000000000000000000000000000000000000000000000000000000000000000000000000000000000000000000000000000000000000100000000001000000100000000000000000000040000000000000000000000001000000000000000000000000000000000000000000000000000000000000000000000000000000100000000100800000000000000080000000080000004000000000000000000000000000000000000000000000000000000000000001040000000000000000002000000000000000000000000000000000004000000010000000000200000000000000000000000000000000000000800000000000000000000000000",
      "type": "0x2",
      "transactionHash": "0x7c76d9f894e89d27a55be04b767c1191e696c8c6e825971c230e578f4e13a019",
      "transactionIndex": "0x15",
      "blockHash": "0xb84091b288fe749a26cc35edf3713b56d2361cb9cb947c2f6b410afd42dcd84b",
      "blockNumber": "0x1c382ed",
      "gasUsed": "0x3c14f",
      "effectiveGasPrice": "0xf2b35",
      "from": "0x25f7fd8f50d522b266764cd3b230edaa8cbb9f75",
      "to": "0xb07183274d9eda8631c1e59476f6e75da5356e77",
      "contractAddress": null,
      "l1BaseFeeScalar": "0x44d",
      "l1BlobBaseFee": "0x1606",
      "l1BlobBaseFeeScalar": "0xa118b",
      "l1Fee": "0x70646",
      "l1GasPrice": "0x1026",
      "l1GasUsed": "0x795"
    }
  ],
  "libraries": [],
  "pending": [],
  "returns": {},
  "timestamp": 1754948795,
  "chain": 84532,
  "commit": "5c3f321"
}