{
  "transactions": [
    {
      "hash": "0xa828be565afacd2886f417c8c4bfd6c09367b5fdd2f04ffa0c8f147a998c3413",
      "transactionType": "CALL",
      "contractName": null,
      "contractAddress": "0x105f6bce37aa9a96782e6c029cd2a0c0c349a287",
      "function": "deploy(bytes32,string,string,uint8)",
      "arguments": [
        "0x069be72ab836d4eacc02525b7350a78a395da2f1253a40ebafd6630000000000",
        "WrappedSOL",
        "wSOL",
        "9"
      ],
      "transaction": {
        "from": "0x25f7fd8f50d522b266764cd3b230edaa8cbb9f75",
        "to": "0x105f6bce37aa9a96782e6c029cd2a0c0c349a287",
        "gas": "0x57de2",
        "value": "0x0",
        "input": "0x23c3601f069be72ab836d4eacc02525b7350a78a395da2f1253a40ebafd6630000000000000000000000000000000000000000000000000000000000000000000000008000000000000000000000000000000000000000000000000000000000000000c00000000000000000000000000000000000000000000000000000000000000009000000000000000000000000000000000000000000000000000000000000000a57726170706564534f4c00000000000000000000000000000000000000000000000000000000000000000000000000000000000000000000000000000000000477534f4c00000000000000000000000000000000000000000000000000000000",
        "nonce": "0x220",
        "chainId": "0x14a34"
      },
      "additionalContracts": [
        {
          "transactionType": "CREATE2",
          "address": "0x1faa044de9739ae3e471d979143c55265542781f",
          "initCode": "0x60523d8160223d39734b27e55e4cda4f3181fc5f3b72bf61ab61b107dd60195155f3363d3d373d3d363d602036600436635c60da1b60e01b36527fa3f0ad74e5423aebfd80d3ef4346578335a9a72aeaee59ff6cb3582b35133d50545afa5036515af43d6000803e604d573d6000fd5b3d6000f3"
        }
      ],
      "isFixedGasLimit": false
    }
  ],
  "receipts": [
    {
      "status": "0x1",
      "cumulativeGasUsed": "0x3cde61",
      "logs": [
        {
          "address": "0x1faa044de9739ae3e471d979143c55265542781f",
          "topics": [
            "0xc7f505b2f371ae2175ee4913f4499e1f2633a7b5936321eed1cdaeb6115181d2"
          ],
          "data": "0x0000000000000000000000000000000000000000000000000000000000000001",
          "blockHash": "0xad0bb979404571fdf00d6a14c49b4b2fa6a272ae7231e12e430b03b3177c6ed6",
          "blockNumber": "0x1ca212c",
          "transactionHash": "0xa828be565afacd2886f417c8c4bfd6c09367b5fdd2f04ffa0c8f147a998c3413",
          "transactionIndex": "0x4",
          "logIndex": "0x84",
          "removed": false
        },
        {
          "address": "0x105f6bce37aa9a96782e6c029cd2a0c0c349a287",
          "topics": [
            "0x0b84965add45c4d10c5aacc22714edc5f88def8df83d2c1f9d18b45ef2d28783",
            "0x0000000000000000000000001faa044de9739ae3e471d979143c55265542781f",
            "0x069be72ab836d4eacc02525b7350a78a395da2f1253a40ebafd6630000000000"
          ],
          "data": "0x00000000000000000000000025f7fd8f50d522b266764cd3b230edaa8cbb9f75",
          "blockHash": "0xad0bb979404571fdf00d6a14c49b4b2fa6a272ae7231e12e430b03b3177c6ed6",
          "blockNumber": "0x1ca212c",
          "transactionHash": "0xa828be565afacd2886f417c8c4bfd6c09367b5fdd2f04ffa0c8f147a998c3413",
          "transactionIndex": "0x4",
          "logIndex": "0x85",
          "removed": false
        }
      ],
      "logsBloom": "0x00000000000000000000000000000000000000000000000000000010000000002010000000000000000000000000000000000000000000000000000100000000001000000000000000000000000000000000000000000000000000000000000000000000000000000000000000000000000020000000000000000000000000000000000000000000100800000000000000080000000080000000000000000000000000000000000000000000000000000000000000000000001000000000000040000000002000000000000000000000000000000006000000000002000000000000000000000000000000000000002000000800000000000000000000000000",
      "type": "0x2",
      "transactionHash": "0xa828be565afacd2886f417c8c4bfd6c09367b5fdd2f04ffa0c8f147a998c3413",
      "transactionIndex": "0x4",
      "blockHash": "0xad0bb979404571fdf00d6a14c49b4b2fa6a272ae7231e12e430b03b3177c6ed6",
      "blockNumber": "0x1ca212c",
      "gasUsed": "0x3c14a",
      "effectiveGasPrice": "0xf07e2",
      "from": "0x25f7fd8f50d522b266764cd3b230edaa8cbb9f75",
      "to": "0x105f6bce37aa9a96782e6c029cd2a0c0c349a287",
      "contractAddress": null,
      "l1BaseFeeScalar": "0x44d",
      "l1BlobBaseFee": "0x1",
      "l1BlobBaseFeeScalar": "0xa118b",
      "l1Fee": "0x903a93c",
      "l1GasPrice": "0x437576b",
      "l1GasUsed": "0x795"
    }
  ],
  "libraries": [],
  "pending": [],
  "returns": {},
  "timestamp": 1755816248,
  "chain": 84532,
  "commit": "216b6c4"
}