{
  "transactions": [
    {
      "hash": "0x77b27f4405a1d04baa3a6742f1c0ae3adc3ae250ae2eec14a1c916393bb4a567",
      "transactionType": "CALL",
      "contractName": null,
      "contractAddress": "0x5262f53ced23a198963dd6b3625c01e5a98266ed",
      "function": "deploy(bytes32,string,string,uint8)",
      "arguments": [
        "0x6ccf56ff18093bc61462cd67c8aa86216fbad049e41d9bffa0856e5f34af5498",
        "WrappedSPL",
        "wSPL",
        "9"
      ],
      "transaction": {
        "from": "0x25f7fd8f50d522b266764cd3b230edaa8cbb9f75",
        "to": "0x5262f53ced23a198963dd6b3625c01e5a98266ed",
        "gas": "0x57e41",
        "value": "0x0",
        "input": "0x23c3601f6ccf56ff18093bc61462cd67c8aa86216fbad049e41d9bffa0856e5f34af5498000000000000000000000000000000000000000000000000000000000000008000000000000000000000000000000000000000000000000000000000000000c00000000000000000000000000000000000000000000000000000000000000009000000000000000000000000000000000000000000000000000000000000000a5772617070656453504c0000000000000000000000000000000000000000000000000000000000000000000000000000000000000000000000000000000000047753504c00000000000000000000000000000000000000000000000000000000",
        "nonce": "0x1d4",
        "chainId": "0x14a34"
      },
      "additionalContracts": [
        {
          "transactionType": "CREATE2",
          "address": "0xbc4027074e544be820b1a16bf4f4f7c626d61032",
          "initCode": "0x60523d8160223d397350512eb50026bb7e04f877b2e4ce8667e4b2e11760195155f3363d3d373d3d363d602036600436635c60da1b60e01b36527fa3f0ad74e5423aebfd80d3ef4346578335a9a72aeaee59ff6cb3582b35133d50545afa5036515af43d6000803e604d573d6000fd5b3d6000f3"
        }
      ],
      "isFixedGasLimit": false
    }
  ],
  "receipts": [
    {
      "status": "0x1",
      "cumulativeGasUsed": "0x1c5112",
      "logs": [
        {
          "address": "0xbc4027074e544be820b1a16bf4f4f7c626d61032",
          "topics": [
            "0xc7f505b2f371ae2175ee4913f4499e1f2633a7b5936321eed1cdaeb6115181d2"
          ],
          "data": "0x0000000000000000000000000000000000000000000000000000000000000001",
          "blockHash": "0xe8cad95d7a672993776554ca82b2d195f66ba12f2627c95db3617c6a66ee231b",
          "blockNumber": "0x1ad9a00",
          "transactionHash": "0x77b27f4405a1d04baa3a6742f1c0ae3adc3ae250ae2eec14a1c916393bb4a567",
          "transactionIndex": "0x8",
          "logIndex": "0x47",
          "removed": false
        },
        {
          "address": "0x5262f53ced23a198963dd6b3625c01e5a98266ed",
          "topics": [
            "0x0b84965add45c4d10c5aacc22714edc5f88def8df83d2c1f9d18b45ef2d28783",
            "0x000000000000000000000000bc4027074e544be820b1a16bf4f4f7c626d61032",
            "0x6ccf56ff18093bc61462cd67c8aa86216fbad049e41d9bffa0856e5f34af5498"
          ],
          "data": "0x00000000000000000000000025f7fd8f50d522b266764cd3b230edaa8cbb9f75",
          "blockHash": "0xe8cad95d7a672993776554ca82b2d195f66ba12f2627c95db3617c6a66ee231b",
          "blockNumber": "0x1ad9a00",
          "transactionHash": "0x77b27f4405a1d04baa3a6742f1c0ae3adc3ae250ae2eec14a1c916393bb4a567",
          "transactionIndex": "0x8",
          "logIndex": "0x48",
          "removed": false
        }
      ],
      "logsBloom": "0x00000000000000000000000000000000000200000800000000000000000000000000000000000000000000000000000000000000000000000000010000000000001000000000000000000000000000000000000000000000000000000010000000000000000400000000000000000000000000000000000000000000000000000000000000000000100800000000000000080000000280000000000000000000000000000000000000000000000000000000000000000000000000400000000000000000000000000000000001000000000000000004000000000000080000000000000000000000000000000000000000001004000000000000000000000040",
      "type": "0x2",
      "transactionHash": "0x77b27f4405a1d04baa3a6742f1c0ae3adc3ae250ae2eec14a1c916393bb4a567",
      "transactionIndex": "0x8",
      "blockHash": "0xe8cad95d7a672993776554ca82b2d195f66ba12f2627c95db3617c6a66ee231b",
      "blockNumber": "0x1ad9a00",
      "gasUsed": "0x3c18b",
      "effectiveGasPrice": "0xf4283",
      "from": "0x25f7fd8f50d522b266764cd3b230edaa8cbb9f75",
      "to": "0x5262f53ced23a198963dd6b3625c01e5a98266ed",
      "contractAddress": null,
      "l1BaseFeeScalar": "0x44d",
      "l1BlobBaseFee": "0x40e5ade2",
      "l1BlobBaseFeeScalar": "0xa118b",
      "l1Fee": "0x1592e0a489",
      "l1GasPrice": "0x1680eba",
      "l1GasUsed": "0x80e"
    }
  ],
  "libraries": [],
  "pending": [],
  "returns": {},
  "timestamp": 1752077024,
  "chain": 84532,
  "commit": "116c10e"
}