{
  "transactions": [
    {
      "hash": "0x625d3dec7d670b4f0453307150516eb8c3b974a65965ccf94a348b33bc0119c1",
      "transactionType": "CALL",
      "contractName": null,
      "contractAddress": "0x9ccf277d8d671c848410b5c1c0b939b29078d6dc",
      "function": "deploy(bytes32,string,string,uint8)",
      "arguments": [
        "0x069be72ab836d4eacc02525b7350a78a395da2f1253a40ebafd6630000000000",
        "WrappedSOL",
        "wSOL",
        "9"
      ],
      "transaction": {
        "from": "0x8c1a617bdb47342f9c17ac8750e0b070c372c721",
        "to": "0x9ccf277d8d671c848410b5c1c0b939b29078d6dc",
        "gas": "0x57de2",
        "value": "0x0",
        "input": "0x23c3601f069be72ab836d4eacc02525b7350a78a395da2f1253a40ebafd6630000000000000000000000000000000000000000000000000000000000000000000000008000000000000000000000000000000000000000000000000000000000000000c00000000000000000000000000000000000000000000000000000000000000009000000000000000000000000000000000000000000000000000000000000000a57726170706564534f4c00000000000000000000000000000000000000000000000000000000000000000000000000000000000000000000000000000000000477534f4c00000000000000000000000000000000000000000000000000000000",
        "nonce": "0x568",
        "chainId": "0x14a34"
      },
      "additionalContracts": [
        {
          "transactionType": "CREATE2",
          "address": "0xf78255ba3001b463eb8b4fabbf617bc2553b1b59",
          "initCode": "0x60523d8160223d3973652fcdf2ced6fdf1055733d71166b2e7671f241860195155f3363d3d373d3d363d602036600436635c60da1b60e01b36527fa3f0ad74e5423aebfd80d3ef4346578335a9a72aeaee59ff6cb3582b35133d50545afa5036515af43d6000803e604d573d6000fd5b3d6000f3"
        }
      ],
      "isFixedGasLimit": false
    }
  ],
  "receipts": [
    {
      "status": "0x1",
      "cumulativeGasUsed": "0x47572",
      "logs": [
        {
          "address": "0xf78255ba3001b463eb8b4fabbf617bc2553b1b59",
          "topics": [
            "0xc7f505b2f371ae2175ee4913f4499e1f2633a7b5936321eed1cdaeb6115181d2"
          ],
          "data": "0x0000000000000000000000000000000000000000000000000000000000000001",
          "blockHash": "0x251cd1c48528e19aa4f9ea8730b586ea83420e451cda10c42715413f9fd56900",
          "blockNumber": "0x1d9f27e",
          "transactionHash": "0x625d3dec7d670b4f0453307150516eb8c3b974a65965ccf94a348b33bc0119c1",
          "transactionIndex": "0x1",
          "logIndex": "0x0",
          "removed": false
        },
        {
          "address": "0x9ccf277d8d671c848410b5c1c0b939b29078d6dc",
          "topics": [
            "0x0b84965add45c4d10c5aacc22714edc5f88def8df83d2c1f9d18b45ef2d28783",
            "0x000000000000000000000000f78255ba3001b463eb8b4fabbf617bc2553b1b59",
            "0x069be72ab836d4eacc02525b7350a78a395da2f1253a40ebafd6630000000000"
          ],
          "data": "0x0000000000000000000000008c1a617bdb47342f9c17ac8750e0b070c372c721",
          "blockHash": "0x251cd1c48528e19aa4f9ea8730b586ea83420e451cda10c42715413f9fd56900",
          "blockNumber": "0x1d9f27e",
          "transactionHash": "0x625d3dec7d670b4f0453307150516eb8c3b974a65965ccf94a348b33bc0119c1",
          "transactionIndex": "0x1",
          "logIndex": "0x1",
          "removed": false
        }
      ],
      "logsBloom": "0x00000000000000000000000000000000000000000000000000000000000000000000000000000000000000000000000000000000000000000000000100000000001000000000000000000000000000000000000000000000000002000000000000000000000000040000000000000000000000000000000000000000000000000000000000000000100800000000000000080000000080000000000000000000000000000000081000000000000000000000000000000000001000000000000000000880000000000000000000000000000000000024000000000000000000000000000000000000000000000000080000000800000000400000000000000000",
      "type": "0x2",
      "transactionHash": "0x625d3dec7d670b4f0453307150516eb8c3b974a65965ccf94a348b33bc0119c1",
      "transactionIndex": "0x1",
      "blockHash": "0x251cd1c48528e19aa4f9ea8730b586ea83420e451cda10c42715413f9fd56900",
      "blockNumber": "0x1d9f27e",
      "gasUsed": "0x3c14a",
      "effectiveGasPrice": "0xf4293",
      "from": "0x8c1a617bdb47342f9c17ac8750e0b070c372c721",
      "to": "0x9ccf277d8d671c848410b5c1c0b939b29078d6dc",
      "contractAddress": null,
      "l1BaseFeeScalar": "0x44d",
      "l1BlobBaseFee": "0x1",
      "l1BlobBaseFeeScalar": "0xa118b",
      "l1Fee": "0x6b36",
      "l1GasPrice": "0x3259",
      "l1GasUsed": "0x788"
    }
  ],
  "libraries": [],
  "pending": [],
  "returns": {},
  "timestamp": 1757889501602,
  "chain": 84532,
  "commit": "5674278"
}