{
  "transactions": [
    {
      "hash": "0x5ba3a1619ff0c73d9f5a9d948d62cde8a069e658872536df839064185c3796e7",
      "transactionType": "CALL",
      "contractName": null,
      "contractAddress": "0x5262f53ced23a198963dd6b3625c01e5a98266ed",
      "function": "deploy(bytes32,string,string,uint8)",
      "arguments": [
        "0x069be72ab836d4eacc02525b7350a78a395da2f1253a40ebafd6630000000000",
        "WrappedSOL",
        "wSOL",
        "9"
      ],
      "transaction": {
        "from": "0x25f7fd8f50d522b266764cd3b230edaa8cbb9f75",
        "to": "0x5262f53ced23a198963dd6b3625c01e5a98266ed",
        "gas": "0x52fcd",
        "value": "0x0",
        "input": "0x23c3601f069be72ab836d4eacc02525b7350a78a395da2f1253a40ebafd6630000000000000000000000000000000000000000000000000000000000000000000000008000000000000000000000000000000000000000000000000000000000000000c00000000000000000000000000000000000000000000000000000000000000009000000000000000000000000000000000000000000000000000000000000000a57726170706564534f4c00000000000000000000000000000000000000000000000000000000000000000000000000000000000000000000000000000000000477534f4c00000000000000000000000000000000000000000000000000000000",
        "nonce": "0x1d3",
        "chainId": "0x14a34"
      },
      "additionalContracts": [
        {
          "transactionType": "CREATE2",
          "address": "0x4d3210a178de60668986eecff4ec0b2508eee1b2",
          "initCode": "0x60523d8160223d397350512eb50026bb7e04f877b2e4ce8667e4b2e11760195155f3363d3d373d3d363d602036600436635c60da1b60e01b36527fa3f0ad74e5423aebfd80d3ef4346578335a9a72aeaee59ff6cb3582b35133d50545afa5036515af43d6000803e604d573d6000fd5b3d6000f3"
        }
      ],
      "isFixedGasLimit": false
    }
  ],
  "receipts": [
    {
      "status": "0x1",
      "cumulativeGasUsed": "0x63709e",
      "logs": [
        {
          "address": "0x4d3210a178de60668986eecff4ec0b2508eee1b2",
          "topics": [
            "0xc7f505b2f371ae2175ee4913f4499e1f2633a7b5936321eed1cdaeb6115181d2"
          ],
          "data": "0x0000000000000000000000000000000000000000000000000000000000000001",
          "blockHash": "0xb9871b8e8afd722754f66be1ff17c4e19a7381e07b703d304694fd9ac8d4bef1",
          "blockNumber": "0x1ad992b",
          "transactionHash": "0x5ba3a1619ff0c73d9f5a9d948d62cde8a069e658872536df839064185c3796e7",
          "transactionIndex": "0x14",
          "logIndex": "0xb5",
          "removed": false
        },
        {
          "address": "0x5262f53ced23a198963dd6b3625c01e5a98266ed",
          "topics": [
            "0x0b84965add45c4d10c5aacc22714edc5f88def8df83d2c1f9d18b45ef2d28783",
            "0x0000000000000000000000004d3210a178de60668986eecff4ec0b2508eee1b2",
            "0x069be72ab836d4eacc02525b7350a78a395da2f1253a40ebafd6630000000000"
          ],
          "data": "0x00000000000000000000000025f7fd8f50d522b266764cd3b230edaa8cbb9f75",
          "blockHash": "0xb9871b8e8afd722754f66be1ff17c4e19a7381e07b703d304694fd9ac8d4bef1",
          "blockNumber": "0x1ad992b",
          "transactionHash": "0x5ba3a1619ff0c73d9f5a9d948d62cde8a069e658872536df839064185c3796e7",
          "transactionIndex": "0x14",
          "logIndex": "0xb6",
          "removed": false
        }
      ],
      "logsBloom": "0x00000000800000000000000000000000000200000000000000000000000000000000000000000000000000000000000000000000000000000000000100000000001000000000000000000000000000000000000000000000000000000000000800000000000400000000000000000000000000000000000000000000000000000000000000008000100800000000000000080000000080000000000000000000000000000000000000000000000000080000000000000000001000000000000000000000000000000000000000000002000000000004000000000000080000000000000000000000000000000000000008000800000000000000000000000000",
      "type": "0x2",
      "transactionHash": "0x5ba3a1619ff0c73d9f5a9d948d62cde8a069e658872536df839064185c3796e7",
      "transactionIndex": "0x14",
      "blockHash": "0xb9871b8e8afd722754f66be1ff17c4e19a7381e07b703d304694fd9ac8d4bef1",
      "blockNumber": "0x1ad992b",
      "gasUsed": "0x3c14f",
      "effectiveGasPrice": "0xf4283",
      "from": "0x25f7fd8f50d522b266764cd3b230edaa8cbb9f75",
      "to": "0x5262f53ced23a198963dd6b3625c01e5a98266ed",
      "contractAddress": null,
      "l1BaseFeeScalar": "0x44d",
      "l1BlobBaseFee": "0x79a12e17",
      "l1BlobBaseFeeScalar": "0xa118b",
      "l1Fee": "0x25cb15ff61",
      "l1GasPrice": "0xb5a7d3",
      "l1GasUsed": "0x788"
    }
  ],
  "libraries": [],
  "pending": [],
  "returns": {},
  "timestamp": 1752076599,
  "chain": 84532,
  "commit": "116c10e"
}