{
  "transactions": [
    {
      "hash": "0xbec860a5b045d2b5e194e8947db19405d9470ad39de0abd4443aeaa0b1566313",
      "transactionType": "CALL",
      "contractName": null,
      "contractAddress": "0xe52e3b464ba5fe19bdbf3609eb039f2032c457f5",
      "function": "deploy(bytes32,string,string,uint8)",
      "arguments": [
        "0x069be72ab836d4eacc02525b7350a78a395da2f1253a40ebafd6630000000000",
        "WrappedSOL",
        "wSOL",
        "9"
      ],
      "transaction": {
        "from": "0x8c1a617bdb47342f9c17ac8750e0b070c372c721",
        "to": "0xe52e3b464ba5fe19bdbf3609eb039f2032c457f5",
        "gas": "0x52fcd",
        "value": "0x0",
        "input": "0x23c3601f069be72ab836d4eacc02525b7350a78a395da2f1253a40ebafd6630000000000000000000000000000000000000000000000000000000000000000000000008000000000000000000000000000000000000000000000000000000000000000c00000000000000000000000000000000000000000000000000000000000000009000000000000000000000000000000000000000000000000000000000000000a57726170706564534f4c00000000000000000000000000000000000000000000000000000000000000000000000000000000000000000000000000000000000477534f4c00000000000000000000000000000000000000000000000000000000",
        "nonce": "0x474",
        "chainId": "0x14a34"
      },
      "additionalContracts": [
        {
          "transactionType": "CREATE2",
          "address": "0x314752245b830f3fef1be33eaf16ff510ba769a4",
          "initCode": "0x60523d8160223d39736872ea689d101efa7eea27f25c2c220190721e3360195155f3363d3d373d3d363d602036600436635c60da1b60e01b36527fa3f0ad74e5423aebfd80d3ef4346578335a9a72aeaee59ff6cb3582b35133d50545afa5036515af43d6000803e604d573d6000fd5b3d6000f3"
        }
      ],
      "isFixedGasLimit": false
    }
  ],
  "receipts": [
    {
      "status": "0x1",
      "cumulativeGasUsed": "0x33b814",
      "logs": [
        {
          "address": "0x314752245b830f3fef1be33eaf16ff510ba769a4",
          "topics": [
            "0xc7f505b2f371ae2175ee4913f4499e1f2633a7b5936321eed1cdaeb6115181d2"
          ],
          "data": "0x0000000000000000000000000000000000000000000000000000000000000001",
          "blockHash": "0x40f1e5d5db47805bf57146082772ea0089a0de1f6ce9abb55cb20069e335a930",
          "blockNumber": "0x1a92222",
          "transactionHash": "0xbec860a5b045d2b5e194e8947db19405d9470ad39de0abd4443aeaa0b1566313",
          "transactionIndex": "0x9",
          "logIndex": "0x96",
          "removed": false
        },
        {
          "address": "0xe52e3b464ba5fe19bdbf3609eb039f2032c457f5",
          "topics": [
            "0x0b84965add45c4d10c5aacc22714edc5f88def8df83d2c1f9d18b45ef2d28783",
            "0x000000000000000000000000314752245b830f3fef1be33eaf16ff510ba769a4",
            "0x069be72ab836d4eacc02525b7350a78a395da2f1253a40ebafd6630000000000"
          ],
          "data": "0x0000000000000000000000008c1a617bdb47342f9c17ac8750e0b070c372c721",
          "blockHash": "0x40f1e5d5db47805bf57146082772ea0089a0de1f6ce9abb55cb20069e335a930",
          "blockNumber": "0x1a92222",
          "transactionHash": "0xbec860a5b045d2b5e194e8947db19405d9470ad39de0abd4443aeaa0b1566313",
          "transactionIndex": "0x9",
          "logIndex": "0x97",
          "removed": false
        }
      ],
      "logsBloom": "0x00000000000000000000000000080080000000000000000000000000000000000000000000000000000000000000000000000000000000000000000100000000001000000000000000000000000000000000000000000004000000000000000000010000000000000000000000000000000000000000000000000000000000000000400000000000100800000000000000080800000080000000000000000000000000000000000000000000000000000000000000000000001000000000000000000000000000000000000000000000000000000004000000000000000000000008000000000000000020000000000000020800000000000000000000000000",
      "type": "0x2",
      "transactionHash": "0xbec860a5b045d2b5e194e8947db19405d9470ad39de0abd4443aeaa0b1566313",
      "transactionIndex": "0x9",
      "blockHash": "0x40f1e5d5db47805bf57146082772ea0089a0de1f6ce9abb55cb20069e335a930",
      "blockNumber": "0x1a92222",
      "gasUsed": "0x3c14f",
      "effectiveGasPrice": "0xf427f",
      "from": "0x8c1a617bdb47342f9c17ac8750e0b070c372c721",
      "to": "0xe52e3b464ba5fe19bdbf3609eb039f2032c457f5",
      "contractAddress": null,
      "l1BaseFeeScalar": "0x44d",
      "l1BlobBaseFee": "0x1",
      "l1BlobBaseFeeScalar": "0xa118b",
      "l1Fee": "0x5ceb115",
      "l1GasPrice": "0x2bc2eba",
      "l1GasUsed": "0x788"
    }
  ],
  "libraries": [],
  "pending": [],
  "returns": {},
  "timestamp": 1751491364,
  "chain": 84532,
  "commit": "7ff6f77"
}