{
  "transactions": [
    {
      "hash": "0x2dadc6b933f20e9d01e6f5e2bd7c526e9eef1ee972fb02295b06e0afa7e3dac7",
      "transactionType": "CALL",
      "contractName": null,
      "contractAddress": "0x571fe107b5443f92a1098860aca7f292e35523de",
      "function": "deploy(bytes32,string,string,uint8)",
      "arguments": [
        "0x6ccf56ff18093bc61462cd67c8aa86216fbad049e41d9bffa0856e5f34af5498",
        "WrappedSPL",
        "wSPL",
        "9"
      ],
      "transaction": {
        "from": "0x25f7fd8f50d522b266764cd3b230edaa8cbb9f75",
        "to": "0x571fe107b5443f92a1098860aca7f292e35523de",
        "gas": "0x5301a",
        "value": "0x0",
        "input": "0x23c3601f6ccf56ff18093bc61462cd67c8aa86216fbad049e41d9bffa0856e5f34af5498000000000000000000000000000000000000000000000000000000000000008000000000000000000000000000000000000000000000000000000000000000c00000000000000000000000000000000000000000000000000000000000000009000000000000000000000000000000000000000000000000000000000000000a5772617070656453504c0000000000000000000000000000000000000000000000000000000000000000000000000000000000000000000000000000000000047753504c00000000000000000000000000000000000000000000000000000000",
        "nonce": "0x20e",
        "chainId": "0x14a34"
      },
      "additionalContracts": [
        {
          "transactionType": "CREATE2",
          "address": "0x4bb9978f622f9a74e3945e4dedd281a6ca4e4a63",
          "initCode": "0x60523d8160223d39739bbf3fcb43dc1f5694abfddb59d1c759c96ec6e360195155f3363d3d373d3d363d602036600436635c60da1b60e01b36527fa3f0ad74e5423aebfd80d3ef4346578335a9a72aeaee59ff6cb3582b35133d50545afa5036515af43d6000803e604d573d6000fd5b3d6000f3"
        }
      ],
      "isFixedGasLimit": false
    }
  ],
  "receipts": [
    {
      "status": "0x1",
      "cumulativeGasUsed": "0x3b3f99",
      "logs": [
        {
          "address": "0x4bb9978f622f9a74e3945e4dedd281a6ca4e4a63",
          "topics": [
            "0xc7f505b2f371ae2175ee4913f4499e1f2633a7b5936321eed1cdaeb6115181d2"
          ],
          "data": "0x0000000000000000000000000000000000000000000000000000000000000001",
          "blockHash": "0xb4b63b78b04c4255b44974cf42781344ad6bd5c83bf3be1a2969a8a157bc32f3",
          "blockNumber": "0x1ca1122",
          "transactionHash": "0x2dadc6b933f20e9d01e6f5e2bd7c526e9eef1ee972fb02295b06e0afa7e3dac7",
          "transactionIndex": "0x10",
          "logIndex": "0x3f",
          "removed": false
        },
        {
          "address": "0x571fe107b5443f92a1098860aca7f292e35523de",
          "topics": [
            "0x0b84965add45c4d10c5aacc22714edc5f88def8df83d2c1f9d18b45ef2d28783",
            "0x0000000000000000000000004bb9978f622f9a74e3945e4dedd281a6ca4e4a63",
            "0x6ccf56ff18093bc61462cd67c8aa86216fbad049e41d9bffa0856e5f34af5498"
          ],
          "data": "0x00000000000000000000000025f7fd8f50d522b266764cd3b230edaa8cbb9f75",
          "blockHash": "0xb4b63b78b04c4255b44974cf42781344ad6bd5c83bf3be1a2969a8a157bc32f3",
          "blockNumber": "0x1ca1122",
          "transactionHash": "0x2dadc6b933f20e9d01e6f5e2bd7c526e9eef1ee972fb02295b06e0afa7e3dac7",
          "transactionIndex": "0x10",
          "logIndex": "0x40",
          "removed": false
        }
      ],
      "logsBloom": "0x00000000000000000000000000000000000000000800000000400000000000000000000000000000000000000000000000000000000000000000010000000000001000000000000000000000000000000000000000200000000001000000000080000000000000000000000008000000000000000000000000000000000000000000000000000000100800000000000002080000000080000000000000000000000000000000000000000000000000000000000000000000000000000000000000000000000000000000000000100000000000000005000000000000000000000000000000000000000000000000000000000000000000000000000000000040",
      "type": "0x2",
      "transactionHash": "0x2dadc6b933f20e9d01e6f5e2bd7c526e9eef1ee972fb02295b06e0afa7e3dac7",
      "transactionIndex": "0x10",
      "blockHash": "0xb4b63b78b04c4255b44974cf42781344ad6bd5c83bf3be1a2969a8a157bc32f3",
      "blockNumber": "0x1ca1122",
      "gasUsed": "0x3c186",
      "effectiveGasPrice": "0xf07a9",
      "from": "0x25f7fd8f50d522b266764cd3b230edaa8cbb9f75",
      "to": "0x571fe107b5443f92a1098860aca7f292e35523de",
      "contractAddress": null,
      "l1BaseFeeScalar": "0x44d",
      "l1BlobBaseFee": "0x36",
      "l1BlobBaseFeeScalar": "0xa118b",
      "l1Fee": "0x26de819",
      "l1GasPrice": "0x111dbd1",
      "l1GasUsed": "0x80e"
    }
  ],
  "libraries": [],
  "pending": [],
  "returns": {},
  "timestamp": 1755808037,
  "chain": 84532,
  "commit": "28a3b9e"
}