{
  "transactions": [
    {
      "hash": "0x74c17a323aebc8292cf2ef65f79071acbcf085f715fdd8d0f63cef082459c0a1",
      "transactionType": "CALL",
      "contractName": null,
      "contractAddress": "0x11f0fd0aac620f7cb7521b116e413f97d1425c28",
      "function": "deploy(bytes32,string,string,uint8)",
      "arguments": [
        "0x069be72ab836d4eacc02525b7350a78a395da2f1253a40ebafd6630000000000",
        "WrappedSOL",
        "wSOL",
        "9"
      ],
      "transaction": {
        "from": "0x8c1a617bdb47342f9c17ac8750e0b070c372c721",
        "to": "0x11f0fd0aac620f7cb7521b116e413f97d1425c28",
        "gas": "0x52fcd",
        "value": "0x0",
        "input": "0x23c3601f069be72ab836d4eacc02525b7350a78a395da2f1253a40ebafd6630000000000000000000000000000000000000000000000000000000000000000000000008000000000000000000000000000000000000000000000000000000000000000c00000000000000000000000000000000000000000000000000000000000000009000000000000000000000000000000000000000000000000000000000000000a57726170706564534f4c00000000000000000000000000000000000000000000000000000000000000000000000000000000000000000000000000000000000477534f4c00000000000000000000000000000000000000000000000000000000",
        "nonce": "0x497",
        "chainId": "0x14a34"
      },
      "additionalContracts": [
        {
          "transactionType": "CREATE2",
          "address": "0x5cbaf201b8a807a19fbaa57173584a7ba88beb55",
          "initCode": "0x60523d8160223d39736e740806ec2452b28531c1320cf8db6d3b61384360195155f3363d3d373d3d363d602036600436635c60da1b60e01b36527fa3f0ad74e5423aebfd80d3ef4346578335a9a72aeaee59ff6cb3582b35133d50545afa5036515af43d6000803e604d573d6000fd5b3d6000f3"
        }
      ],
      "isFixedGasLimit": false
    }
  ],
  "receipts": [
    {
      "status": "0x1",
      "cumulativeGasUsed": "0x30c948",
      "logs": [
        {
          "address": "0x5cbaf201b8a807a19fbaa57173584a7ba88beb55",
          "topics": [
            "0xc7f505b2f371ae2175ee4913f4499e1f2633a7b5936321eed1cdaeb6115181d2"
          ],
          "data": "0x0000000000000000000000000000000000000000000000000000000000000001",
          "blockHash": "0x3295e4954ae0951f93ee9f65b01036e5ed781b61d248b3dda673b09ac004e880",
          "blockNumber": "0x1c1eaa3",
          "transactionHash": "0x74c17a323aebc8292cf2ef65f79071acbcf085f715fdd8d0f63cef082459c0a1",
          "transactionIndex": "0xb",
          "logIndex": "0x46",
          "removed": false
        },
        {
          "address": "0x11f0fd0aac620f7cb7521b116e413f97d1425c28",
          "topics": [
            "0x0b84965add45c4d10c5aacc22714edc5f88def8df83d2c1f9d18b45ef2d28783",
            "0x0000000000000000000000005cbaf201b8a807a19fbaa57173584a7ba88beb55",
            "0x069be72ab836d4eacc02525b7350a78a395da2f1253a40ebafd6630000000000"
          ],
          "data": "0x0000000000000000000000008c1a617bdb47342f9c17ac8750e0b070c372c721",
          "blockHash": "0x3295e4954ae0951f93ee9f65b01036e5ed781b61d248b3dda673b09ac004e880",
          "blockNumber": "0x1c1eaa3",
          "transactionHash": "0x74c17a323aebc8292cf2ef65f79071acbcf085f715fdd8d0f63cef082459c0a1",
          "transactionIndex": "0xb",
          "logIndex": "0x47",
          "removed": false
        }
      ],
      "logsBloom": "0x00002000000008000000000000000000000000000000800000000000000000000000000000000000000000000000000000000000000000000000000100000000001000000000000000000000000000000000000000000000000800000000000000000000000000000000000000000000100000000000000000000000000000000000000000000000100800000000000000080400000080000000000000000000000000000000010000000000000000000000000000000000001000000000000000000000000000000000000000000000000000000004000000000000000000000000000000000000000000000000000000000800000000000000000000008000",
      "type": "0x2",
      "transactionHash": "0x74c17a323aebc8292cf2ef65f79071acbcf085f715fdd8d0f63cef082459c0a1",
      "transactionIndex": "0xb",
      "blockHash": "0x3295e4954ae0951f93ee9f65b01036e5ed781b61d248b3dda673b09ac004e880",
      "blockNumber": "0x1c1eaa3",
      "gasUsed": "0x3c14f",
      "effectiveGasPrice": "0xecd48",
      "from": "0x8c1a617bdb47342f9c17ac8750e0b070c372c721",
      "to": "0x11f0fd0aac620f7cb7521b116e413f97d1425c28",
      "contractAddress": null,
      "l1BaseFeeScalar": "0x44d",
      "l1BlobBaseFee": "0x245a3f",
      "l1BlobBaseFeeScalar": "0xa118b",
      "l1Fee": "0xb4d6eec",
      "l1GasPrice": "0x109cd",
      "l1GasUsed": "0x788"
    }
  ],
  "libraries": [],
  "pending": [],
  "returns": {},
  "timestamp": 1754739750,
  "chain": 84532,
  "commit": "65412f3"
}