{
  "transactions": [
    {
      "hash": "0x308d66ef916d73fa603a0c4b1d58be8213e503f4879949f365d0d7e97ad97048",
      "transactionType": "CALL",
      "contractName": null,
      "contractAddress": "0x814546bb251106c6b3b753ec1eb3a77d68b35323",
      "function": "deploy(bytes32,string,string,uint8)",
      "arguments": [
        "0x069be72ab836d4eacc02525b7350a78a395da2f1253a40ebafd6630000000000",
        "WrappedSOL",
        "wSOL",
        "9"
      ],
      "transaction": {
        "from": "0x8c1a617bdb47342f9c17ac8750e0b070c372c721",
        "to": "0x814546bb251106c6b3b753ec1eb3a77d68b35323",
        "gas": "0x57de2",
        "value": "0x0",
        "input": "0x23c3601f069be72ab836d4eacc02525b7350a78a395da2f1253a40ebafd6630000000000000000000000000000000000000000000000000000000000000000000000008000000000000000000000000000000000000000000000000000000000000000c00000000000000000000000000000000000000000000000000000000000000009000000000000000000000000000000000000000000000000000000000000000a57726170706564534f4c00000000000000000000000000000000000000000000000000000000000000000000000000000000000000000000000000000000000477534f4c00000000000000000000000000000000000000000000000000000000",
        "nonce": "0x55a",
        "chainId": "0x14a34"
      },
      "additionalContracts": [
        {
          "transactionType": "CREATE2",
          "address": "0x2dda899ac8534636ec9f5e17f53c0c5dc64a3a8a",
          "initCode": "0x60523d8160223d397346ce6f339f4faa9424ee3d7c94dde27598b049b260195155f3363d3d373d3d363d602036600436635c60da1b60e01b36527fa3f0ad74e5423aebfd80d3ef4346578335a9a72aeaee59ff6cb3582b35133d50545afa5036515af43d6000803e604d573d6000fd5b3d6000f3"
        }
      ],
      "isFixedGasLimit": false
    }
  ],
  "receipts": [
    {
      "status": "0x1",
      "cumulativeGasUsed": "0x5b2b54",
      "logs": [
        {
          "address": "0x2dda899ac8534636ec9f5e17f53c0c5dc64a3a8a",
          "topics": [
            "0xc7f505b2f371ae2175ee4913f4499e1f2633a7b5936321eed1cdaeb6115181d2"
          ],
          "data": "0x0000000000000000000000000000000000000000000000000000000000000001",
          "blockHash": "0xc7d7f476656a538e5a9bfae6560c656bf92149fcfbec023caf8362018d09abe7",
          "blockNumber": "0x1d9f09d",
          "blockTimestamp": "0x68c7401a",
          "transactionHash": "0x308d66ef916d73fa603a0c4b1d58be8213e503f4879949f365d0d7e97ad97048",
          "transactionIndex": "0x1b",
          "logIndex": "0x6c",
          "removed": false
        },
        {
          "address": "0x814546bb251106c6b3b753ec1eb3a77d68b35323",
          "topics": [
            "0x0b84965add45c4d10c5aacc22714edc5f88def8df83d2c1f9d18b45ef2d28783",
            "0x0000000000000000000000002dda899ac8534636ec9f5e17f53c0c5dc64a3a8a",
            "0x069be72ab836d4eacc02525b7350a78a395da2f1253a40ebafd6630000000000"
          ],
          "data": "0x0000000000000000000000008c1a617bdb47342f9c17ac8750e0b070c372c721",
          "blockHash": "0xc7d7f476656a538e5a9bfae6560c656bf92149fcfbec023caf8362018d09abe7",
          "blockNumber": "0x1d9f09d",
          "blockTimestamp": "0x68c7401a",
          "transactionHash": "0x308d66ef916d73fa603a0c4b1d58be8213e503f4879949f365d0d7e97ad97048",
          "transactionIndex": "0x1b",
          "logIndex": "0x6d",
          "removed": false
        }
      ],
      "logsBloom": "0x00000020000000000000000000000000000000000000000000000000000000000000000000000000000000000000000000000000000000000000000100000000001000000000000000000000000000000000000000000000001000000000000000000000000000000000000000000000001000000000000000000000000000000000000000000000100800000000000000080800000080000000000000000000000000000000000000000000000000001000440000000000001000000000000000000100000000000001000000000000000000000004000000000000000000000000000000000000000000000000000000000800000000000000000000000000",
      "type": "0x2",
      "transactionHash": "0x308d66ef916d73fa603a0c4b1d58be8213e503f4879949f365d0d7e97ad97048",
      "transactionIndex": "0x1b",
      "blockHash": "0xc7d7f476656a538e5a9bfae6560c656bf92149fcfbec023caf8362018d09abe7",
      "blockNumber": "0x1d9f09d",
      "gasUsed": "0x3c14a",
      "effectiveGasPrice": "0xf4296",
      "from": "0x8c1a617bdb47342f9c17ac8750e0b070c372c721",
      "to": "0x814546bb251106c6b3b753ec1eb3a77d68b35323",
      "contractAddress": null,
      "l1BaseFeeScalar": "0x44d",
      "l1BlobBaseFee": "0x1",
      "l1BlobBaseFeeScalar": "0xa118b",
      "l1Fee": "0x47d8",
      "l1GasPrice": "0x21b1",
      "l1GasUsed": "0x788"
    }
  ],
  "libraries": [],
  "pending": [],
  "returns": {},
  "timestamp": 1757888538453,
  "chain": 84532,
  "commit": "c007baf"
}