{
  "transactions": [
    {
      "hash": "0xa4ce51e1ce923e7724d9ecd905d31690e089a40517a9c1dde45bc34e59c6c51b",
      "transactionType": "CALL",
      "contractName": null,
      "contractAddress": "0xfe4bdf4d7fa76996a0ee9f6785cb5e2fbe30ffb6",
      "function": "deploy(bytes32,string,string,uint8)",
      "arguments": [
        "0x069be72ab836d4eacc02525b7350a78a395da2f1253a40ebafd6630000000000",
        "WrappedSOL",
        "wSOL",
        "9"
      ],
      "transaction": {
        "from": "0x25f7fd8f50d522b266764cd3b230edaa8cbb9f75",
        "to": "0xfe4bdf4d7fa76996a0ee9f6785cb5e2fbe30ffb6",
        "gas": "0x52fcd",
        "value": "0x0",
        "input": "0x23c3601f069be72ab836d4eacc02525b7350a78a395da2f1253a40ebafd6630000000000000000000000000000000000000000000000000000000000000000000000008000000000000000000000000000000000000000000000000000000000000000c00000000000000000000000000000000000000000000000000000000000000009000000000000000000000000000000000000000000000000000000000000000a57726170706564534f4c00000000000000000000000000000000000000000000000000000000000000000000000000000000000000000000000000000000000477534f4c00000000000000000000000000000000000000000000000000000000",
        "nonce": "0x1e0",
        "chainId": "0x14a34"
      },
      "additionalContracts": [
        {
          "transactionType": "CREATE2",
          "address": "0x4b2f802705462c9506271b97271ae1f91ea4c239",
          "initCode": "0x60523d8160223d3973d0608364b418b47c87085e11bc4e1618c46c16d960195155f3363d3d373d3d363d602036600436635c60da1b60e01b36527fa3f0ad74e5423aebfd80d3ef4346578335a9a72aeaee59ff6cb3582b35133d50545afa5036515af43d6000803e604d573d6000fd5b3d6000f3"
        }
      ],
      "isFixedGasLimit": false
    }
  ],
  "receipts": [
    {
      "status": "0x1",
      "cumulativeGasUsed": "0x1fc24b",
      "logs": [
        {
          "address": "0x4b2f802705462c9506271b97271ae1f91ea4c239",
          "topics": [
            "0xc7f505b2f371ae2175ee4913f4499e1f2633a7b5936321eed1cdaeb6115181d2"
          ],
          "data": "0x0000000000000000000000000000000000000000000000000000000000000001",
          "blockHash": "0xcb67eeef08cd8e4b6d59c31e94e4c87e0ebe4bdbeaaeb7eafedcffd743b10e9c",
          "blockNumber": "0x1c15b8d",
          "transactionHash": "0xa4ce51e1ce923e7724d9ecd905d31690e089a40517a9c1dde45bc34e59c6c51b",
          "transactionIndex": "0xc",
          "logIndex": "0x4e",
          "removed": false
        },
        {
          "address": "0xfe4bdf4d7fa76996a0ee9f6785cb5e2fbe30ffb6",
          "topics": [
            "0x0b84965add45c4d10c5aacc22714edc5f88def8df83d2c1f9d18b45ef2d28783",
            "0x0000000000000000000000004b2f802705462c9506271b97271ae1f91ea4c239",
            "0x069be72ab836d4eacc02525b7350a78a395da2f1253a40ebafd6630000000000"
          ],
          "data": "0x00000000000000000000000025f7fd8f50d522b266764cd3b230edaa8cbb9f75",
          "blockHash": "0xcb67eeef08cd8e4b6d59c31e94e4c87e0ebe4bdbeaaeb7eafedcffd743b10e9c",
          "blockNumber": "0x1c15b8d",
          "transactionHash": "0xa4ce51e1ce923e7724d9ecd905d31690e089a40517a9c1dde45bc34e59c6c51b",
          "transactionIndex": "0xc",
          "logIndex": "0x4f",
          "removed": false
        }
      ],
      "logsBloom": "0x00000000000000000000000000000000000000000000000000000000000000000000000000002000000000000000000000000000000000000000000100000000001000000100000000001000000000000000000000000000000000000000000000000000000000000000000000000000080000000000000000000000000000000000000000000000100800000400001000080000000080000000000000000000000000000000000000000000000008000000000000000000001000000000000000000000000000000000400000000000000000000004000000000000000000000000000000000000000000000000000000000800004000000000000000000000",
      "type": "0x2",
      "transactionHash": "0xa4ce51e1ce923e7724d9ecd905d31690e089a40517a9c1dde45bc34e59c6c51b",
      "transactionIndex": "0xc",
      "blockHash": "0xcb67eeef08cd8e4b6d59c31e94e4c87e0ebe4bdbeaaeb7eafedcffd743b10e9c",
      "blockNumber": "0x1c15b8d",
      "gasUsed": "0x3c14f",
      "effectiveGasPrice": "0xf427e",
      "from": "0x25f7fd8f50d522b266764cd3b230edaa8cbb9f75",
      "to": "0xfe4bdf4d7fa76996a0ee9f6785cb5e2fbe30ffb6",
      "contractAddress": null,
      "l1BaseFeeScalar": "0x44d",
      "l1BlobBaseFee": "0x2765268",
      "l1BlobBaseFeeScalar": "0xa118b",
      "l1Fee": "0xc4c12da1",
      "l1GasPrice": "0x6ff62a",
      "l1GasUsed": "0x788"
    }
  ],
  "libraries": [],
  "pending": [],
  "returns": {},
  "timestamp": 1754666490,
  "chain": 84532,
  "commit": "98d1063"
}