{
  "transactions": [
    {
      "hash": "0xcce787b0fe21f76f33a5e2c2e49ad258f2878b7e7050fbe00250188b95b6bf70",
      "transactionType": "CALL",
      "contractName": null,
      "contractAddress": "0x8316debfdc3093dffb10233b76f32481b7386950",
      "function": "deploy(bytes32,string,string,uint8)",
      "arguments": [
        "0x069be72ab836d4eacc02525b7350a78a395da2f1253a40ebafd6630000000000",
        "WrappedSOL",
        "wSOL",
        "9"
      ],
      "transaction": {
        "from": "0x25f7fd8f50d522b266764cd3b230edaa8cbb9f75",
        "to": "0x8316debfdc3093dffb10233b76f32481b7386950",
        "gas": "0x57de2",
        "value": "0x0",
        "input": "0x23c3601f069be72ab836d4eacc02525b7350a78a395da2f1253a40ebafd6630000000000000000000000000000000000000000000000000000000000000000000000008000000000000000000000000000000000000000000000000000000000000000c00000000000000000000000000000000000000000000000000000000000000009000000000000000000000000000000000000000000000000000000000000000a57726170706564534f4c00000000000000000000000000000000000000000000000000000000000000000000000000000000000000000000000000000000000477534f4c00000000000000000000000000000000000000000000000000000000",
        "nonce": "0x23b",
        "chainId": "0x14a34"
      },
      "additionalContracts": [
        {
          "transactionType": "CREATE2",
          "address": "0xc50ea8caedae290fe4eda770b10adefc41cd698e",
          "initCode": "0x60523d8160223d397375a7c560bd5d65dbe8094b97c5e5a9c1c2d9863060195155f3363d3d373d3d363d602036600436635c60da1b60e01b36527fa3f0ad74e5423aebfd80d3ef4346578335a9a72aeaee59ff6cb3582b35133d50545afa5036515af43d6000803e604d573d6000fd5b3d6000f3"
        }
      ],
      "isFixedGasLimit": false
    }
  ],
  "receipts": [
    {
      "status": "0x1",
      "cumulativeGasUsed": "0x8394da",
      "logs": [
        {
          "address": "0xc50ea8caedae290fe4eda770b10adefc41cd698e",
          "topics": [
            "0xc7f505b2f371ae2175ee4913f4499e1f2633a7b5936321eed1cdaeb6115181d2"
          ],
          "data": "0x0000000000000000000000000000000000000000000000000000000000000001",
          "blockHash": "0x47edfface98450b2bbadfe0716e078e89584c3202fdb5dca18bd85076070476a",
          "blockNumber": "0x1e05a91",
          "transactionHash": "0xcce787b0fe21f76f33a5e2c2e49ad258f2878b7e7050fbe00250188b95b6bf70",
          "transactionIndex": "0xb",
          "logIndex": "0xdd",
          "removed": false
        },
        {
          "address": "0x8316debfdc3093dffb10233b76f32481b7386950",
          "topics": [
            "0x0b84965add45c4d10c5aacc22714edc5f88def8df83d2c1f9d18b45ef2d28783",
            "0x000000000000000000000000c50ea8caedae290fe4eda770b10adefc41cd698e",
            "0x069be72ab836d4eacc02525b7350a78a395da2f1253a40ebafd6630000000000"
          ],
          "data": "0x00000000000000000000000025f7fd8f50d522b266764cd3b230edaa8cbb9f75",
          "blockHash": "0x47edfface98450b2bbadfe0716e078e89584c3202fdb5dca18bd85076070476a",
          "blockNumber": "0x1e05a91",
          "transactionHash": "0xcce787b0fe21f76f33a5e2c2e49ad258f2878b7e7050fbe00250188b95b6bf70",
          "transactionIndex": "0xb",
          "logIndex": "0xde",
          "removed": false
        }
      ],
      "logsBloom": "0x20000000000000000200000000000000000000400000000000000000000000000200400000000000000000000000000000000000000000000001000100000000001000000010000000000000000000000000000000000000000000000000000000000000000000000008000000000000000000000000000000000000000000000000000000000000100800000000000000080000000080000000000000000000000000000000000000000000000000000000000000000000001000000000000000000000000000000000000000000000000000000004000000000000000000000000000008000000000000000000000000000800000000000000000000000000",
      "type": "0x2",
      "transactionHash": "0xcce787b0fe21f76f33a5e2c2e49ad258f2878b7e7050fbe00250188b95b6bf70",
      "transactionIndex": "0xb",
      "blockHash": "0x47edfface98450b2bbadfe0716e078e89584c3202fdb5dca18bd85076070476a",
      "blockNumber": "0x1e05a91",
      "gasUsed": "0x3c14a",
      "effectiveGasPrice": "0xf4293",
      "from": "0x25f7fd8f50d522b266764cd3b230edaa8cbb9f75",
      "to": "0x8316debfdc3093dffb10233b76f32481b7386950",
      "contractAddress": null,
      "l1BaseFeeScalar": "0x44d",
      "l1BlobBaseFee": "0x1",
      "l1BlobBaseFeeScalar": "0xa118b",
      "l1Fee": "0x1755",
      "l1GasPrice": "0xad8",
      "l1GasUsed": "0x788"
    }
  ],
  "libraries": [],
  "pending": [],
  "returns": {},
  "timestamp": 1758729218,
  "chain": 84532,
  "commit": "e3209fe"
}