{
  "transactions": [
    {
      "hash": "0xa3d8e3f73805109971a8d705daf2221ff9372f807f1385d145b1cf1ea2681c75",
      "transactionType": "CALL",
      "contractName": null,
      "contractAddress": "0x5e3693d6c35c9358dea70921fc131bcc6abf8adc",
      "function": "deploy(bytes32,string,string,uint8)",
      "arguments": [
        "0x6ccf56ff18093bc61462cd67c8aa86216fbad049e41d9bffa0856e5f34af5498",
        "WrappedSPL",
        "wSPL",
        "9"
      ],
      "transaction": {
        "from": "0x8c1a617bdb47342f9c17ac8750e0b070c372c721",
        "to": "0x5e3693d6c35c9358dea70921fc131bcc6abf8adc",
        "gas": "0x57e41",
        "value": "0x0",
        "input": "0x23c3601f6ccf56ff18093bc61462cd67c8aa86216fbad049e41d9bffa0856e5f34af5498000000000000000000000000000000000000000000000000000000000000008000000000000000000000000000000000000000000000000000000000000000c00000000000000000000000000000000000000000000000000000000000000009000000000000000000000000000000000000000000000000000000000000000a5772617070656453504c0000000000000000000000000000000000000000000000000000000000000000000000000000000000000000000000000000000000047753504c00000000000000000000000000000000000000000000000000000000",
        "nonce": "0x4a4",
        "chainId": "0x14a34"
      },
      "additionalContracts": [
        {
          "transactionType": "CREATE2",
          "address": "0xed0d3f4ab984010b6bc8bf812c332093e5025c91",
          "initCode": "0x60523d8160223d3973a4eed2d2efa3fe169b1eb646cb7d5b5159b2471e60195155f3363d3d373d3d363d602036600436635c60da1b60e01b36527fa3f0ad74e5423aebfd80d3ef4346578335a9a72aeaee59ff6cb3582b35133d50545afa5036515af43d6000803e604d573d6000fd5b3d6000f3"
        }
      ],
      "isFixedGasLimit": false
    }
  ],
  "receipts": [
    {
      "status": "0x1",
      "cumulativeGasUsed": "0x3f9f1e",
      "logs": [
        {
          "address": "0xed0d3f4ab984010b6bc8bf812c332093e5025c91",
          "topics": [
            "0xc7f505b2f371ae2175ee4913f4499e1f2633a7b5936321eed1cdaeb6115181d2"
          ],
          "data": "0x0000000000000000000000000000000000000000000000000000000000000001",
          "blockHash": "0x9b91807ce51a2444addb5734187cc669b3ddafcca11d5f0337491ee24fbe1e86",
          "blockNumber": "0x1c22a06",
          "transactionHash": "0xa3d8e3f73805109971a8d705daf2221ff9372f807f1385d145b1cf1ea2681c75",
          "transactionIndex": "0xe",
          "logIndex": "0x8a",
          "removed": false
        },
        {
          "address": "0x5e3693d6c35c9358dea70921fc131bcc6abf8adc",
          "topics": [
            "0x0b84965add45c4d10c5aacc22714edc5f88def8df83d2c1f9d18b45ef2d28783",
            "0x000000000000000000000000ed0d3f4ab984010b6bc8bf812c332093e5025c91",
            "0x6ccf56ff18093bc61462cd67c8aa86216fbad049e41d9bffa0856e5f34af5498"
          ],
          "data": "0x0000000000000000000000008c1a617bdb47342f9c17ac8750e0b070c372c721",
          "blockHash": "0x9b91807ce51a2444addb5734187cc669b3ddafcca11d5f0337491ee24fbe1e86",
          "blockNumber": "0x1c22a06",
          "transactionHash": "0xa3d8e3f73805109971a8d705daf2221ff9372f807f1385d145b1cf1ea2681c75",
          "transactionIndex": "0xe",
          "logIndex": "0x8b",
          "removed": false
        }
      ],
      "logsBloom": "0x00000002000000000000000000000000000000100800000000000040000000000000000000000400000000000000200000000000000000000000010000000000001000000000000000000000000000000000000000000000000000000000000000000000000000000000000000000000000000000000000000000000000000000000000000000000100800000000000000080000000080000000000000000000000000000000000000040000000000000000000000000000000000000000000000000000000000000000000000000000000000000104000000000000000000000000000000000000000000040000000000000000000000000000000000000040",
      "type": "0x2",
      "transactionHash": "0xa3d8e3f73805109971a8d705daf2221ff9372f807f1385d145b1cf1ea2681c75",
      "transactionIndex": "0xe",
      "blockHash": "0x9b91807ce51a2444addb5734187cc669b3ddafcca11d5f0337491ee24fbe1e86",
      "blockNumber": "0x1c22a06",
      "gasUsed": "0x3c18b",
      "effectiveGasPrice": "0xf07dc",
      "from": "0x8c1a617bdb47342f9c17ac8750e0b070c372c721",
      "to": "0x5e3693d6c35c9358dea70921fc131bcc6abf8adc",
      "contractAddress": null,
      "l1BaseFeeScalar": "0x44d",
      "l1BlobBaseFee": "0x3efc80",
      "l1BlobBaseFeeScalar": "0xa118b",
      "l1Fee": "0x14ed2950",
      "l1GasPrice": "0x1f",
      "l1GasUsed": "0x80e"
    }
  ],
  "libraries": [],
  "pending": [],
  "returns": {},
  "timestamp": 1754772205,
  "chain": 84532,
  "commit": "a7ea318"
}