{
  "transactions": [
    {
      "hash": "0x266a5ca9f13dd37f88f10050089dabb31093e27c3879dbf0d4776bf42595968f",
      "transactionType": "CALL",
      "contractName": null,
      "contractAddress": "0xb07183274d9eda8631c1e59476f6e75da5356e77",
      "function": "deploy(bytes32,string,string,uint8)",
      "arguments": [
        "0x6ccf56ff18093bc61462cd67c8aa86216fbad049e41d9bffa0856e5f34af5498",
        "WrappedSPL",
        "wSPL",
        "9"
      ],
      "transaction": {
        "from": "0x25f7fd8f50d522b266764cd3b230edaa8cbb9f75",
        "to": "0xb07183274d9eda8631c1e59476f6e75da5356e77",
        "gas": "0x57e41",
        "value": "0x0",
        "input": "0x23c3601f6ccf56ff18093bc61462cd67c8aa86216fbad049e41d9bffa0856e5f34af5498000000000000000000000000000000000000000000000000000000000000008000000000000000000000000000000000000000000000000000000000000000c00000000000000000000000000000000000000000000000000000000000000009000000000000000000000000000000000000000000000000000000000000000a5772617070656453504c0000000000000000000000000000000000000000000000000000000000000000000000000000000000000000000000000000000000047753504c00000000000000000000000000000000000000000000000000000000",
        "nonce": "0x200",
        "chainId": "0x14a34"
      },
      "additionalContracts": [
        {
          "transactionType": "CREATE2",
          "address": "0x46848fa619ca3de5788475e1c1d713fe05aeb300",
          "initCode": "0x60523d8160223d3973a0ba7c73fc3261beb8b88d67a4378808d893bc9260195155f3363d3d373d3d363d602036600436635c60da1b60e01b36527fa3f0ad74e5423aebfd80d3ef4346578335a9a72aeaee59ff6cb3582b35133d50545afa5036515af43d6000803e604d573d6000fd5b3d6000f3"
        }
      ],
      "isFixedGasLimit": false
    }
  ],
  "receipts": [
    {
      "status": "0x1",
      "cumulativeGasUsed": "0x626f0e",
      "logs": [
        {
          "address": "0x46848fa619ca3de5788475e1c1d713fe05aeb300",
          "topics": [
            "0xc7f505b2f371ae2175ee4913f4499e1f2633a7b5936321eed1cdaeb6115181d2"
          ],
          "data": "0x0000000000000000000000000000000000000000000000000000000000000001",
          "blockHash": "0xcaa12d5d6291671610342c0807a3ab72aad7f41364cbf0f6def008b44bb26500",
          "blockNumber": "0x1c382fa",
          "transactionHash": "0x266a5ca9f13dd37f88f10050089dabb31093e27c3879dbf0d4776bf42595968f",
          "transactionIndex": "0x19",
          "logIndex": "0x4d",
          "removed": false
        },
        {
          "address": "0xb07183274d9eda8631c1e59476f6e75da5356e77",
          "topics": [
            "0x0b84965add45c4d10c5aacc22714edc5f88def8df83d2c1f9d18b45ef2d28783",
            "0x00000000000000000000000046848fa619ca3de5788475e1c1d713fe05aeb300",
            "0x6ccf56ff18093bc61462cd67c8aa86216fbad049e41d9bffa0856e5f34af5498"
          ],
          "data": "0x00000000000000000000000025f7fd8f50d522b266764cd3b230edaa8cbb9f75",
          "blockHash": "0xcaa12d5d6291671610342c0807a3ab72aad7f41364cbf0f6def008b44bb26500",
          "blockNumber": "0x1c382fa",
          "transactionHash": "0x266a5ca9f13dd37f88f10050089dabb31093e27c3879dbf0d4776bf42595968f",
          "transactionIndex": "0x19",
          "logIndex": "0x4e",
          "removed": false
        }
      ],
      "logsBloom": "0x00000000000000000000002000000000000000000800000000000000000000000000000000000000000000000000000000000000000000000000010000000000001000000000000000000000000000040000010000000000000000000000000000000000000000000000000000000000000000000000000000000000000000000000000100000000100800000000000000080000000080000000000001000000000000000000000000000000000000000000000000000000000000000000000000000000000000000000000000000000000000200004000000000000000000200000000000000000200000000000000000000000001000000000000000000040",
      "type": "0x2",
      "transactionHash": "0x266a5ca9f13dd37f88f10050089dabb31093e27c3879dbf0d4776bf42595968f",
      "transactionIndex": "0x19",
      "blockHash": "0xcaa12d5d6291671610342c0807a3ab72aad7f41364cbf0f6def008b44bb26500",
      "blockNumber": "0x1c382fa",
      "gasUsed": "0x3c18b",
      "effectiveGasPrice": "0xf4278",
      "from": "0x25f7fd8f50d522b266764cd3b230edaa8cbb9f75",
      "to": "0xb07183274d9eda8631c1e59476f6e75da5356e77",
      "contractAddress": null,
      "l1BaseFeeScalar": "0x44d",
      "l1BlobBaseFee": "0x169c",
      "l1BlobBaseFeeScalar": "0xa118b",
      "l1Fee": "0x79e7c",
      "l1GasPrice": "0xc1c",
      "l1GasUsed": "0x80e"
    }
  ],
  "libraries": [],
  "pending": [],
  "returns": {},
  "timestamp": 1754948821,
  "chain": 84532,
  "commit": "5c3f321"
}