{
  "transactions": [
    {
      "hash": "0xd3c824f46378c2d97c05426446076705341d1c19174d6b71757c73fe4015aa82",
      "transactionType": "CALL",
      "contractName": null,
      "contractAddress": "0x93d8a8960112d74c0db4f18e8ee2576728f4d668",
      "function": "deploy(bytes32,string,string,uint8)",
      "arguments": [
        "0x069be72ab836d4eacc02525b7350a78a395da2f1253a40ebafd6630000000000",
        "WrappedSOL",
        "wSOL",
        "9"
      ],
      "transaction": {
        "from": "0x8c1a617bdb47342f9c17ac8750e0b070c372c721",
        "to": "0x93d8a8960112d74c0db4f18e8ee2576728f4d668",
        "gas": "0x57de2",
        "value": "0x0",
        "input": "0x23c3601f069be72ab836d4eacc02525b7350a78a395da2f1253a40ebafd6630000000000000000000000000000000000000000000000000000000000000000000000008000000000000000000000000000000000000000000000000000000000000000c00000000000000000000000000000000000000000000000000000000000000009000000000000000000000000000000000000000000000000000000000000000a57726170706564534f4c00000000000000000000000000000000000000000000000000000000000000000000000000000000000000000000000000000000000477534f4c00000000000000000000000000000000000000000000000000000000",
        "nonce": "0x549",
        "chainId": "0x14a34"
      },
      "additionalContracts": [
        {
          "transactionType": "CREATE2",
          "address": "0xe061cb6ca67e152aff009dbb20749a096a579974",
          "initCode": "0x60523d8160223d3973e79fe3b056e1cf928efd42b6bd89e85f93f1a48860195155f3363d3d373d3d363d602036600436635c60da1b60e01b36527fa3f0ad74e5423aebfd80d3ef4346578335a9a72aeaee59ff6cb3582b35133d50545afa5036515af43d6000803e604d573d6000fd5b3d6000f3"
        }
      ],
      "isFixedGasLimit": false
    }
  ],
  "receipts": [
    {
      "status": "0x1",
      "cumulativeGasUsed": "0x217b0f",
      "logs": [
        {
          "address": "0xe061cb6ca67e152aff009dbb20749a096a579974",
          "topics": [
            "0xc7f505b2f371ae2175ee4913f4499e1f2633a7b5936321eed1cdaeb6115181d2"
          ],
          "data": "0x0000000000000000000000000000000000000000000000000000000000000001",
          "blockHash": "0x3d85adc026eec3349aed931cb696dd66b678830985666b2b43f5b8dfaa26bd9e",
          "blockNumber": "0x1d7eb99",
          "transactionHash": "0xd3c824f46378c2d97c05426446076705341d1c19174d6b71757c73fe4015aa82",
          "transactionIndex": "0x7",
          "logIndex": "0x2c",
          "removed": false
        },
        {
          "address": "0x93d8a8960112d74c0db4f18e8ee2576728f4d668",
          "topics": [
            "0x0b84965add45c4d10c5aacc22714edc5f88def8df83d2c1f9d18b45ef2d28783",
            "0x000000000000000000000000e061cb6ca67e152aff009dbb20749a096a579974",
            "0x069be72ab836d4eacc02525b7350a78a395da2f1253a40ebafd6630000000000"
          ],
          "data": "0x0000000000000000000000008c1a617bdb47342f9c17ac8750e0b070c372c721",
          "blockHash": "0x3d85adc026eec3349aed931cb696dd66b678830985666b2b43f5b8dfaa26bd9e",
          "blockNumber": "0x1d7eb99",
          "transactionHash": "0xd3c824f46378c2d97c05426446076705341d1c19174d6b71757c73fe4015aa82",
          "transactionIndex": "0x7",
          "logIndex": "0x2d",
          "removed": false
        }
      ],
      "logsBloom": "0x000000000000000000000000000000000000000000000000000000000000000000000000000000000000000000000000000000000000000000000001000000000010000000000000000080000000000000000000000000000000000100000000000000000000000000000000000000000000000000000000000000000000000000000000000000001008020000000000000c0000000080000000008000000000000000000000000400000000000000000010000000000000001000000000000000000000000000000002000000000000000000000004000000000000000000000000000000000200000000000000000000000800000000000000000000000000",
      "type": "0x2",
      "transactionHash": "0xd3c824f46378c2d97c05426446076705341d1c19174d6b71757c73fe4015aa82",
      "transactionIndex": "0x7",
      "blockHash": "0x3d85adc026eec3349aed931cb696dd66b678830985666b2b43f5b8dfaa26bd9e",
      "blockNumber": "0x1d7eb99",
      "gasUsed": "0x3c14a",
      "effectiveGasPrice": "0xf4282",
      "from": "0x8c1a617bdb47342f9c17ac8750e0b070c372c721",
      "to": "0x93d8a8960112d74c0db4f18e8ee2576728f4d668",
      "contractAddress": null,
      "l1BaseFeeScalar": "0x44d",
      "l1BlobBaseFee": "0x1",
      "l1BlobBaseFeeScalar": "0xa118b",
      "l1Fee": "0x18dda",
      "l1GasPrice": "0xbb3b",
      "l1GasUsed": "0x788"
    }
  ],
  "libraries": [],
  "pending": [],
  "returns": {},
  "timestamp": 1757623826753,
  "chain": 84532,
  "commit": "1008d20"
}